:020000040800F2
:1000000000280020E11600081D1100082311000837
:10001000291100082F110008351100080000000008
:100020000000000000000000000000003B1100087C
:100030004711000800000000531100085F1100087C
:100040002917000829170008291700082917000890
:100050002917000829170008291700082917000880
:100060002917000829170008291700082917000870
:100070002917000829170008291700082917000860
:100080002917000829170008291700082917000850
:100090002917000829170008291700082917000840
:1000A0002917000829170008291700082917000830
:1000B0006D1100082917000800000000291700082A
:1000C00029170008000000000000000029170008A0
:1000D0000000000029170008291700080000000090
:1000E0002917000829170008291700080000000038
:1000F0000000000000000000000000000000000000
:0C01000000000000000000005FF808F1A3
:10010C0010B5054C237833B9044B13B10448AFF345
:10011C0000800123237010BD280000200000000087
:10012C00582D000808B5034B1BB103490348AFF326
:10013C00008008BD000000002C000020582D000895
:10014C0080B483B000AF00237B6011E00D4A7B6864
:10015C00134401221A700C4A7B68134401221A7052
:10016C000A4A7B68134401221A707B6801337B6056
:10017C007B68022BEADD00BF00BF0C37BD4680BC9C
:10018C00704700BF480000204C00002044000020B5
:10019C0080B582B000AF00237B602DE01A4A7B68EB
:1001AC0013441978194A7B6813440A461A70184A82
:1001BC007B6832F813301946164801F09BFD034654
:1001CC001946114A7B6813440A461A700E4A7B681A
:1001DC0013441A780D497B680B441B789A4208D15A
:1001EC00094A7B68134419780B4A7B6813440A4606
:1001FC001A707B6801337B607B68022BCEDD00BFFD
:10020C0000BF0837BD4680BD480000204C000020D0
:10021C0000000020000C01404400002080B483B09A
:10022C0000AF0346FB71FB79022B01D9002307E0D9
:10023C00FB79064AD35C002B01D1012300E000239B
:10024C0018460C37BD4680BC704700BF44000020E8
:10025C0080B582B000AF7860584B93F90030B3F1A1
:10026C00FF3F04D17B685AB2544B1A70A3E0534B36
:10027C0093F900301A467B68934204D17B685AB2DA
:10028C004E4B1A7097E04D4B93F90030022B58D01F
:10029C00022B7ADC002B02D0012B2ED075E07B6870
:1002AC00012B03D07B68022B13D06EE0444B1A78E1
:1002BC00444B1B789A4208D9414B1A78414B1B7816
:1002CC00D31ADAB2404B1A7016E03F4B01221A7067
:1002DC0012E03B4B1A783C4B1B789A4208D9384BAE
:1002EC001A78394B1B78D31ADAB2364B1A7002E0F3
:1002FC00344B01221A7000BF47E07B68002B03D0FF
:10030C007B68022B13D040E02D4B1A782D4B1B78B9
:10031C009A4208D92A4B1A782A4B1B78D31ADAB28C
:10032C00294B1A700CE0284B01221A7008E0254B5F
:10033C001A78254B1B781344DAB2214B1A7000BF84
:10034C0023E07B68002B03D07B68012B13D01BE0D0
:10035C001B4B1A781C4B1B789A4208D9184B1A78ED
:10036C00194B1B78D31ADAB2164B1A700CE0154BDA
:10037C0001221A7008E0134B1A78134B1B781344A4
:10038C00DAB20F4B1A7000BF00BF0D4B1B7818462A
:10039C0000F08CFF0B4B1B78184600F0A1FF0A4BAA
:1003AC001B78184600F0B6FF00F0CEFF01F014F8F1
:1003BC00024BFF221A700837BD4680BD0900002091
:1003CC0006000020070000200800002080B400AFC9
:1003DC000B4B1B781A460B4B1B7819460A4B1B7898
:1003EC000B449A4207D0074B1A78074B1B781344DF
:1003FC00DAB2034B1A7000BFBD4680BC704700BF19
:10040C0006000020070000200800002080B500AF87
:10041C00BB4B1B68002B13D100F0D8FE00F0B0FED4
:10042C0001F050F9B64B01221A604FF47A7000F0CB
:10043C0083FD002000F0B8FD0A2000F099FDADE22C
:10044C00B04B1B78032B00F29E8201A252F823F0D2
:10045C006D0400082705000887060008210800081D
:10046C00A94B1B68002B08D0A74B00221A6001F087
:10047C0029F94FF47A7000F05FFD0020FFF7CEFEF3
:10048C000346002B22D0A14B1B78002B1ED19F4B77
:10049C0001221A709B4B01221A7000F0E9FE0346F0
:1004AC001A469B4B1A7000F06BFE002208219948EB
:1004BC0001F037FC00224021964801F032FCFA2072
:1004CC0000F072FD944B00221A6008E00020FFF748
:1004DC00A5FE0346002B02D18C4B00221A708F4BC9
:1004EC001B68002B00F053828C4B00221A608A4B45
:1004FC001B68DBB2184600F011FB874B1B680133FD
:10050C005A4203F0030302F0030258BF5342824ADB
:10051C001360FA2000F02CFD39E27D4B1B78022190
:10052C00184600F077FA7E4B1B68002B0DD07C4BE5
:10053C0000221A600821774801F00BFC4021754815
:10054C0001F007FCFA2000F02FFD0020FFF766FEFB
:10055C000346002B23D06D4B1B78002B1FD16B4B0C
:10056C0001221A70674B02221A7000F08BFE0346B0
:10057C001A466C4B1A7000F003FE002220216548CD
:10058C0001F0CFFB00224FF48071624801F0C9FBEF
:10059C00FA2000F009FD604B00221A6008E00020F0
:1005AC00FFF73CFE0346002B02D1584B00221A7079
:1005BC000120FFF733FE0346002B14D05A4B1B7857
:1005CC00002B10D1584B01221A70514B1B78013360
:1005DC00DAB24F4B1A704E4B1B78632B0CD94C4B29
:1005EC0001221A7008E00120FFF718FE0346002BC9
:1005FC0002D14D4B00221A700220FFF70FFE03466A
:10060C00002B13D0494B1B78002B0FD1474B0122E9
:10061C001A703F4B1A78464B1A70454B1B7818468C
:10062C0000F044FE0020FFF713FE08E00220FFF765
:10063C00F5FD0346002B02D13C4B00221A70374BC0
:10064C001B68002B00F0A581344B00221A60324B42
:10065C001B68DBB2184600F061FA2F4B1B680133A4
:10066C005A4203F0030302F0030258BF53422A4AD2
:10067C001360FA2000F07CFC8BE12A4B1B780321E1
:10068C00184600F0C7F9264B1B68002B0ED0244BE4
:10069C0000221A6020211F4801F05BFB4FF480718F
:1006AC001C4801F056FBFA2000F07EFC0020FFF7FE
:1006BC00B5FD0346002B3FD0144B1B78002B3BD1D0
:1006CC00124B01221A700F4B03221A7000F0E4FD3A
:1006DC0003461A46174B1A7000F052FD00221021E7
:1006EC000C4801F01EFB002280210A4801F019FB86
:1006FC00FA2000F059FC084B00221A6025E000BFDC
:10070C00580000204F0000207400002053000020EF
:10071C0050000020000C01405C00002078000020FC
:10072C007C000020510000205400002055000020C7
:10073C0006000020520000200020FFF76FFD03464A
:10074C00002B02D1964B00221A700120FFF766FD98
:10075C000346002B14D0934B1B78002B10D1914BDC
:10076C0001221A70904B1B780133DAB28E4B1A703F
:10077C008D4B1B78632B0CD98B4B01221A7008E024
:10078C000120FFF74BFD0346002B02D1854B0022C5
:10079C001A700220FFF742FD0346002B13D0834B47
:1007AC001B78002B0FD1814B01221A707E4B1A78CB
:1007BC007F4B1A707E4B1B78184600F091FD012080
:1007CC00FFF746FD08E00220FFF728FD0346002B4B
:1007DC0002D1764B00221A70764B1B68002B00F06E
:1007EC00DA80744B00221A60734B1B68DBB218461C
:1007FC0000F094F9704B1B6801335A4203F0030369
:10080C0002F0030258BF53426B4A1360FA2000F007
:10081C00AFFBC0E0694B1B780421184600F0FAF8D6
:10082C00674B1B68002B0DD0654B00221A60102102
:10083C00644801F08EFA8021624801F08AFAFA20AD
:10084C0000F0B2FB0020FFF7E9FC0346002B2DD093
:10085C00534B1B78002B29D1514B01221A70FFF7F7
:10086C00B5FD594B1B78184600F020FD504B1B78FA
:10087C00184600F035FD554B1B78184600F04AFD24
:10088C0000F062FD00F0A8FD514BFF221A7000F041
:10089C0077FC00F017FF4FF47A7000F04DFB4D4BD6
:1008AC0000221A70444B00221A6008E00020FFF767
:1008BC00B5FC0346002B02D1394B00221A700120E3
:1008CC00FFF7ACFC0346002B14D0364B1B78002BE7
:1008DC0010D1344B01221A70384B1B780133DAB229
:1008EC00364B1A70354B1B78632B0CD9334B0122CA
:1008FC001A7008E00120FFF791FC0346002B02D18F
:10090C00284B00221A700220FFF788FC0346002BAC
:10091C0013D0264B1B78002B0FD1244B01221A70BD
:10092C00264B1A78294B1A70284B1B78184600F066
:10093C00F1FC0220FFF78CFC08E00220FFF76EFCB4
:10094C000346002B02D1194B00221A70194B1B685D
:10095C00002B22D0174B00221A60174B1B68DBB2FE
:10096C00184600F0DBF8144B1B6801335A4203F0B5
:10097C00030302F0030258BF53420F4A1360FA20DC
:10098C0000F0F6FA09E0134B00221A7006E000BFE3
:10099C0004E000BF02E000BF00E000BF80BD00BF6C
:1009AC00530000205400002051000020550000206E
:1009BC0007000020780000205C000020520000207E
:1009CC007C000020000C01400600002008000020E4
:1009DC00090000204F00002080B500AF01224FF429
:1009EC0000710B4801F09DF901224FF48061084819
:1009FC0001F097F901224FF40061054801F091F9DB
:100A0C0001224FF48051024801F08BF900BF80BDE8
:100A1C00000C014080B483B000AF03460A46FB7162
:100A2C001346BB71FB79174AA2FB0323DB08DAB22E
:100A3C00154B1A70FA79134BA3FB0213D9080B460A
:100A4C009B000B445B00D31ADAB20F4B5A70BB7984
:100A5C000C4AA2FB0323DB08DAB20B4B9A70BA796F
:100A6C00084BA3FB0213D9080B469B000B445B00FD
:100A7C00D31ADAB2044BDA7000BF0C37BD4680BC17
:100A8C00704700BFCDCCCCCC6000002080B483B0CC
:100A9C0000AF0346FB71FB790C4AA2FB0323DB0876
:100AAC00DAB20B4B1A70FA79084BA3FB0213D90874
:100ABC000B469B000B445B00D31ADAB2044B5A7002
:100ACC0000BF0C37BD4680BC704700BFCDCCCCCC32
:100ADC006000002080B483B000AF0346FB71FB794B
:100AEC000C4AA2FB0323DB08DAB20B4B9A70FA799F
:100AFC00084BA3FB0213D9080B469B000B445B006D
:100B0C00D31ADAB2044BDA7000BF0C37BD4680BC86
:100B1C00704700BFCDCCCCCC6000002080B582B03B
:100B2C0000AF0346FB71FFF757FFFB79032B4FD840
:100B3C0001A252F823F000BF550B0008770B0008F8
:100B4C00990B0008BB0B0008234B1B781A46234B50
:100B5C009A5C234B1A70002000F046F800224FF4E8
:100B6C000071204801F0DDF832E01B4B5B781A462F
:100B7C001A4B9A5C1A4B5A70012000F035F800227F
:100B8C004FF48061174801F0CCF821E0124B9B78B0
:100B9C001A46124B9A5C124B9A70022000F024F801
:100BAC0000224FF400610F4801F0BBF810E00A4B33
:100BBC00DB781A46094B9A5C094BDA70032000F07B
:100BCC0013F800224FF48051064801F0AAF800BF38
:100BDC0000BF0837BD4680BD600000200C0000201F
:100BEC0064000020000C014080B582B000AF0346C9
:100BFC00FB71FB793B4AD35C03F00103002B0CBF68
:100C0C0001230023DBB21A460221374801F089F890
:100C1C00FB79344AD35C5B08DBB203F00103002B95
:100C2C000CBF01230023DBB21A4604212E4801F02D
:100C3C0078F8FB792B4AD35C9B08DBB203F00103F9
:100C4C00002B0CBF01230023DBB21A4608212648D7
:100C5C0001F067F8FB79234AD35CDB08DBB203F0C5
:100C6C000103002B0CBF01230023DBB21A46102119
:100C7C001D4801F056F8FB791A4AD35C1B09DBB20C
:100C8C0003F00103002B0CBF01230023DBB21A4637
:100C9C002021154801F045F8FB79124AD35C5B0919
:100CAC00DBB203F00103002B0CBF01230023DBB2EA
:100CBC001A4640210C4801F034F8FB79094AD35C00
:100CCC009B09DBB203F00103002B0CBF01230023B3
:100CDC00DBB21A468021044801F023F800BF083724
:100CEC00BD4680BD640000200008014080B500AF07
:100CFC0000F016FD00F026F800F0ACF800F05EF8FD
:100D0C000F4801F06BFCFFF71BFA0021052000F0E7
:100D1C009BFA0121022000F097FA0221032000F037
:100D2C0093FA00F053FA4FF47A7000F005F9FA20B8
:100D3C0000F03AF9FA2000F01BF9FFF767FBFCE72B
:100D4C008C00002080B590B000AF07F1180328226A
:100D5C000021184601F0F2FF3B1D00221A605A6078
:100D6C009A60DA601A610223BB610123BB62102313
:100D7C00FB6200237B6307F11803184601F002F8AD
:100D8C000346002B01D000F0D1F80F237B60002329
:100D9C00BB600023FB6000233B6100237B613B1D98
:100DAC000021184601F06EFA0346002B01D000F02A
:100DBC00BDF800BF4037BD4680BD000080B586B091
:100DCC0000AF07F1080300221A605A609A60DA60DB
:100DDC003B4600221A605A601D4B4FF080421A604D
:100DEC001B4B41F63F725A60194B00229A60184B0C
:100DFC000822DA60164B00221A61154B00229A6108
:100E0C00134801F09BFB0346002B01D000F08EF839
:100E1C004FF48053BB6007F1080319460C4801F0EE
:100E2C0019FD0346002B01D000F080F800233B6035
:100E3C0000237B603B461946054801F0F1FE034652
:100E4C00002B01D000F072F800BF1837BD4680BDF2
:100E5C008C00002080B586B000AF07F1080300229B
:100E6C001A605A609A60DA60274B9B69264A43F0F5
:100E7C0004039361244B9B6903F004037B607B6840
:100E8C00214B9B69204A43F0080393611E4B9B69DD
:100E9C0003F008033B603B680022FE211B4800F076
:100EAC0040FF002241F6F871194800F03AFFFE238A
:100EBC00BB600123FB6000233B6102237B6107F1D4
:100ECC0008031946114800F09BFD0723BB60002363
:100EDC00FB6001233B6107F1080319460C4800F045
:100EEC008FFD41F6F873BB600123FB6000233B616F
:100EFC0002237B6107F108031946054800F080FDC9
:100F0C0000BF1837BD4680BD0010024000080140EC
:100F1C00000C014080B582B000AF7860FFF738F963
:100F2C0000F05EF800BF0837BD4680BD80B400AF4E
:100F3C0072B600BFFEE7000080B483B000AF7860EB
:100F4C007B68084A82FB03129210DB17D31A064AFD
:100F5C001360064B00221A6000BF0C37BD4680BCE4
:100F6C00704700BF6766666668000020740000204A
:100F7C0080B483B000AF78607B68084A82FB0312B0
:100F8C009210DB17D31A064A1360064B00221A6024
:100F9C0000BF0C37BD4680BC704700BF67666666F5
:100FAC006C0000207800002080B483B000AF786023
:100FBC007B68084A82FB03129210DB17D31A064A8D
:100FCC001360064B00221A6000BF0C37BD4680BC74
:100FDC00704700BF67666666700000207C000020CA
:100FEC0080B400AF194B1B68002B0BDD174B1B6833
:100FFC00013B164A1360154B1B68002B02D1144B96
:10100C0001221A60134B1B68002B0BDD114B1B6864
:10101C00013B104A13600F4B1B68002B02D10E4B87
:10102C0001221A600D4B1B68002B0BDD0B4B1B6850
:10103C00013B0A4A1360094B1B68002B02D1084B79
:10104C0001221A6000BFBD4680BC704768000020BA
:10105C00740000206C00002078000020700000203C
:10106C007C00002080B485B000AF154B9B69144AFE
:10107C0043F001039361124B9B6903F00103BB60C6
:10108C00BB680F4BDB690E4A43F08053D3610C4BAA
:10109C00DB6903F080537B607B680A4B5B68FB6009
:1010AC00FB6823F0E063FB60FB6843F08063FB604C
:1010BC00044AFB68536000BF1437BD4680BC7047C0
:1010CC00001002400000014080B584B000AF786091
:1010DC007B681B68B3F1804F13D10C4BDB690B4A57
:1010EC0043F00103D361094BDB6903F00103FB609F
:1010FC00FB68002200211C2000F04BFC1C2000F09F
:10110C0064FC00BF1037BD4680BD00BF001002401C
:10111C0080B400AFFEE780B400AFFEE780B400AF50
:10112C00FEE780B400AFFEE780B400AFFEE780B40A
:10113C0000AF00BFBD4680BC704780B400AF00BF9D
:10114C00BD4680BC704780B400AF00BFBD4680BCBC
:10115C00704780B500AF00F029FB00BF80BD0000D8
:10116C0080B500AF024801F085FA00BF80BD00BF1A
:10117C008C00002080B400AF00BFBD4680BC70471F
:10118C0080B500AF012208210F4800F0CAFD0122F2
:10119C0040210D4800F0C5FD012220210A4800F035
:1011AC00C0FD01224FF48071074800F0BAFD012206
:1011BC001021054800F0B5FD01228021024800F005
:1011CC00B0FD00BF80BD00BF000C014080B400AF7B
:1011DC00134B1A78134B1A70114B5A78124B1A7016
:1011EC000F4B9A78114B1A700D4B1A78104B1A70D2
:1011FC000B4B5A780F4B1A70094B9A780E4B1A708E
:10120C00074B1A780D4B1A70054B5A780C4B1A7009
:10121C00034B9A780B4B1A7000BFBD4680BC7047CD
:10122C008000002083000020840000208500002026
:10123C008600002087000020880000201C00002071
:10124C001D0000201E00002080B483B000AF0346B8
:10125C000A46FB711346BB71BB790449FA79CA542F
:10126C0000BF0C37BD4680BC704700BF800000201B
:10127C0080B400AF024B1B781846BD4680BC70474B
:10128C008000002080B400AF024B5B781846BD464E
:10129C0080BC70478000002080B400AF024B9B786C
:1012AC001846BD4680BC70478000002080B483B0D7
:1012BC0000AF0346FB71FB79002B01D10123FB71BD
:1012CC00054AFB791370054AFB79137000BF0C3784
:1012DC00BD4680BC704700BF1C0000208000002071
:1012EC0080B483B000AF0346FB71FB79002B01D1B6
:1012FC000123FB71054AFB791370054AFB79537086
:10130C0000BF0C37BD4680BC704700BF1D000020DD
:10131C008000002080B483B000AF0346FB71FB79E2
:10132C00002B01D10123FB71054AFB791370054A8F
:10133C00FB79937000BF0C37BD4680BC704700BF73
:10134C001E0000208000002080B400AF164B1A78DD
:10135C00164B1A70164B1A78144B5A70154B1A7888
:10136C00124B9A70104B1A78134B1A70104B1A7848
:10137C00124B1A700F4B1A78114B1A700A4B1A78C1
:10138C00104B1A700A4B1A780F4B1A70094B1A78BB
:10139C000E4B1A700E4B02221A700E4B00221A7052
:1013AC0000BFBD4680BC70471C00002080000020A0
:1013BC001D0000201E00002083000020840000205F
:1013CC008500002086000020870000208800002077
:1013DC001F0000208900002080B400AF0D4B1A784C
:1013EC000D4B1A700B4B5A780C4B1A70094B9A78A0
:1013FC000B4B1A70074B1A780A4B1A70054B5A781C
:10140C00094B1A70034B9A78084B1A7000BFBD46F3
:10141C0080BC7047800000208300002084000020E6
:10142C008500002086000020870000208800002016
:10143C0080B500AF484B1B78022B07D0022B00F372
:10144C008880002B56D0012B2AD082E0434B1B788E
:10145C001846FFF73FFB01220821414800F061FCD0
:10146C00012220213E4800F05CFC002210213C4867
:10147C0000F057FC394B1B78002B05D0374B1B78F1
:10148C00013BDAB2354B1A70344B1B78002B5BD115
:10149C00344B1A78344B1A702F4B01221A7053E0CC
:1014AC00314B1B781846FFF715FB012208212C48FD
:1014BC0000F037FC00222021294800F032FC0122E8
:1014CC001021274800F02DFC274B1B78002B05D052
:1014DC00254B1B78013BDAB2234B1A70224B1B783D
:1014EC00002B33D1214B1A78214B1A701A4B002246
:1014FC001A702BE01E4B1B781846FFF7EBFA0022F4
:10150C000821174800F00DFC01222021144800F09E
:10151C0008FC01221021124800F003FC144B1B782C
:10152C00002B05D0124B1B78013BDAB2104B1A7012
:10153C000F4B1B78002B0BD10E4B1A78074B1A70E4
:10154C00054B02221A7003E000BF02E000BF00E06E
:10155C0000BF00BF80BD00BF1F000020880000201E
:10156C00000C01401D000020870000201C00002002
:10157C00860000201E00002080B500AF494B1B7870
:10158C00022B07D0022B00F38B80002B58D0012BA1
:10159C002BD085E0444B1B781846FFF777FA0122D5
:1015AC004021424800F0BDFB01224FF480713F48BE
:1015BC0000F0B7FB002280213C4800F0B2FB3A4B14
:1015CC001B78002B05D0384B1B78013BDAB2364B1D
:1015DC001A70354B1B78002B5DD1354B1A78354B77
:1015EC001A70304B01221A7055E0324B1B7818469A
:1015FC00FFF74CFA012240212C4800F092FB00220C
:10160C004FF48071294800F08CFB0122802127487F
:10161C0000F087FB274B1B78002B05D0254B1B7844
:10162C00013BDAB2234B1A70224B1B78002B34D1BE
:10163C00214B1A78214B1A701A4B00221A702CE08D
:10164C001E4B1B781846FFF721FA00224021174841
:10165C0000F067FB01224FF48071144800F061FB2D
:10166C0001228021114800F05CFB144B1B78002BED
:10167C0005D0124B1B78013BDAB2104B1A700F4B92
:10168C001B78002B0BD10E4B1A78074B1A70054B9D
:10169C0002221A7003E000BF02E000BF00E000BFAE
:1016AC0000BF80BD8900002085000020000C014097
:1016BC001D000020840000201C000020830000205E
:1016CC001E00002080B500AFFFF756FFFFF7B0FEFD
:1016DC0000BF80BDFFF74EFD0B480C490C4A0023A0
:1016EC0002E0D458C4500433C4188C42F9D3094ACC
:1016FC00094C002301E013600432A242FBD301F039
:10170C00F9FAFFF7F3FA70470000002028000020D8
:10171C009C2D000828000020D8000020FEE70000C7
:10172C0080B500AF084B1B68074A43F010031360E9
:10173C00032000F023F90F2000F008F8FFF792FCCB
:10174C000023184680BD00BF0020024080B582B047
:10175C0000AF7860124B1A68124B1B7819464FF485
:10176C007A73B3FBF1F3B2FBF3F3184600F03BF9D9
:10177C000346002B01D001230EE07B680F2B0AD807
:10178C00002279684FF0FF3000F003F9064A7B68BD
:10179C001360002300E0012318460837BD4680BDC6
:1017AC0018000020240000202000002080B400AF8E
:1017BC00054B1B781A46054B1B681344034A1360F0
:1017CC0000BFBD4680BC704724000020D400002020
:1017DC0080B400AF024B1B681846BD4680BC7047F6
:1017EC00D400002080B485B000AF78607B6803F033
:1017FC000703FB600C4BDB68BB60BA684FF6FF035A
:10180C001340BB60FB681A02BB68134343F0BF6311
:10181C0043F40033BB60044ABB68D36000BF143789
:10182C00BD4680BC704700BF00ED00E080B400AF47
:10183C00044BDB681B0A03F007031846BD4680BC4B
:10184C00704700BF00ED00E080B483B000AF0346EA
:10185C00FB7197F90730002B0BDBFB7903F01F02B0
:10186C00064997F907305B09012000FA02F241F8AA
:10187C00232000BF0C37BD4680BC704700E100E060
:10188C0080B483B000AF03463960FB7197F9073021
:10189C00002B0ADB3B68DAB20C4997F907301201CE
:1018AC00D2B20B4483F800230AE03B68DAB2084951
:1018BC00FB7903F00F03043B1201D2B20B441A76EE
:1018CC0000BF0C37BD4680BC704700BF00E100E094
:1018DC0000ED00E080B489B000AFF860B9607A60C8
:1018EC00FB6803F00703FB61FB69C3F10703042BDF
:1018FC0028BF0423BB61FB690433062B02D9FB69A7
:10190C00033B00E000237B614FF0FF32BB6902FA1E
:10191C0003F3DA43BB681A407B699A404FF0FF31FE
:10192C007B6901FA03F3D9437B680B4013431846D8
:10193C002437BD4680BC704780B582B000AF78605C
:10194C007B68013BB3F1807F01D301230FE00A4A8E
:10195C007B68013B53600F214FF0FF30FFF790FF86
:10196C00054B00229A60044B07221A60002318468C
:10197C000837BD4680BD00BF10E000E080B582B0E6
:10198C0000AF78607868FFF72DFF00BF0837BD46C1
:10199C0080BD80B586B000AF0346B9607A60FB733A
:1019AC0000237B61FFF742FF78617A68B968786938
:1019BC00FFF790FF024697F90F3011461846FFF7D4
:1019CC005FFF00BF1837BD4680BD80B582B000AF49
:1019DC000346FB7197F907301846FFF735FF00BF38
:1019EC000837BD4680BD80B582B000AF786078689E
:1019FC00FFF7A2FF034618460837BD4680BD00001E
:101A0C0080B48BB000AF7860396000237B62002318
:101A1C003B6248E101227B6A02FA03F3FB613B68FB
:101A2C001B68FA691340BB61BA69FB699A4240F0C2
:101A3C0037813B685B68A34A93425ED0A14A9342CC
:101A4C0075D8A14A934258D09F4A93426FD89F4A67
:101A5C00934252D09D4A934269D89D4A93424CD0AE
:101A6C009B4A934263D89B4A934246D0994A9342ED
:101A7C005DD8122B2AD8122B59D801A252F823F078
:101A8C00071B0008E11A0008F31A0008351B0008B0
:101A9C003B1B00083B1B00083B1B00083B1B0008C2
:101AAC003B1B00083B1B00083B1B00083B1B0008B2
:101ABC003B1B00083B1B00083B1B00083B1B0008A2
:101ACC003B1B0008E91A0008FD1A0008824A9342E1
:101ADC0013D02CE03B68DB683B6229E03B68DB6899
:101AEC0004333B6224E03B68DB6808333B621FE055
:101AFC003B68DB680C333B621AE03B689B68002B4D
:101B0C0002D104233B6213E03B689B68012B05D197
:101B1C0008233B627B68FA691A6109E008233B627F
:101B2C007B68FA695A6103E000233B6200E000BF66
:101B3C00BB69FF2B01D87B6801E07B6804337B61B8
:101B4C00BB69FF2B02D87B6A9B0002E07B6A083BD7
:101B5C009B003B617B691A680F213B6901FA03F317
:101B6C00DB431A40396A3B6901FA03F31A437B6978
:101B7C001A603B685B6803F08053002B00F0908088
:101B8C00564B9B69554A43F001039361534B9B6938
:101B9C0003F00103BB60BB68514A7B6A9B080233AC
:101BAC0052F82330FB607B6A03F003039B000F2287
:101BBC0002FA03F3DB43FA681340FB607B68494A83
:101BCC0093420DD07B68484A934207D07B68474AC2
:101BDC00934201D1022304E0032302E0012300E03D
:101BEC0000237A6A02F0030292009340FA681343CE
:101BFC00FB603B497B6A9B080233FA6841F823205F
:101C0C003B685B6803F48013002B06D0384B9A6852
:101C1C003749BB6913438B6006E0354B9A68BB6947
:101C2C00DB43334913408B603B685B6803F4001360
:101C3C00002B06D02E4BDA682D49BB691343CB60C1
:101C4C0006E02B4BDA68BB69DB4329491340CB60B8
:101C5C003B685B6803F40033002B06D0244B5A68B6
:101C6C002349BB6913434B6006E0214B5A68BB699F
:101C7C00DB431F4913404B603B685B6803F48033C4
:101C8C00002B06D01A4B1A681949BB6913430B6019
:101C9C0006E0174B1A68BB69DB43154913400B6010
:101CAC007B6A01337B623B681A687B6A22FA03F316
:101CBC00002B7FF4AFAE00BF00BF2C37BD4680BCFD
:101CCC00704700BF000032100000311000002210DD
:101CDC000000211000001210000011100010024032
:101CEC000000014000080140000C014000100140C0
:101CFC000004014080B485B000AF78600B467B8057
:101D0C007B689A687B881340002B02D00123FB73FD
:101D1C0001E00023FB73FB7B18461437BD4680BCE7
:101D2C00704780B483B000AF78600B467B8013465D
:101D3C007B707B78002B03D07A887B681A6103E078
:101D4C007B881A047B681A6100BF0C37BD4680BCC7
:101D5C00704780B485B000AF78600B467B807B68A1
:101D6C00DB68FB607A88FB6813401A04FB68D94374
:101D7C007B880B401A437B681A6100BF1437BD4641
:101D8C0080BC704780B586B000AF78607B68002B54
:101D9C0001D101236CE27B681B6803F00103002B6B
:101DAC0000F08780924B5B6803F00C03042B0CD083
:101DBC008F4B5B6803F00C03082B12D18C4B5B68C8
:101DCC0003F48033B3F5803F0BD1894B1B6803F4CC
:101DDC000033002B6CD07B685B68002B68D101232F
:101DEC0046E27B685B68B3F5803F06D1804B1B688D
:101DFC007F4A43F4803313602EE07B685B68002BD2
:101E0C000CD17B4B1B687A4A23F480331360784BDC
:101E1C001B68774A23F4802313601DE07B685B68A2
:101E2C00B3F5A02F0CD1724B1B68714A43F480237D
:101E3C0013606F4B1B686E4A43F4803313600BE0E6
:101E4C006B4B1B686A4A23F480331360684B1B6826
:101E5C00674A23F4802313607B685B68002B13D0E4
:101E6C00FFF7B6FC386108E0FFF7B2FC02463B69AD
:101E7C00D31A642B01D90323FAE15D4B1B6803F4DD
:101E8C000033002BF0D014E0FFF7A2FC386108E01F
:101E9C00FFF79EFC02463B69D31A642B01D903233E
:101EAC00E6E1534B1B6803F40033002BF0D100E048
:101EBC0000BF7B681B6803F00203002B63D04C4B04
:101ECC005B6803F00C03002B0BD0494B5B6803F0F1
:101EDC000C03082B1CD1464B5B6803F48033002B9E
:101EEC0016D1434B1B6803F00203002B05D07B6813
:101EFC001B69012B01D00123BAE13D4B1B6823F078
:101F0C00F8027B685B69DB00394913430B603AE0EC
:101F1C007B681B69002B20D0364B01221A60FFF71F
:101F2C0057FC386108E0FFF753FC02463B69D31AB3
:101F3C00022B01D903239BE12D4B1B6803F00203F9
:101F4C00002BF0D02A4B1B6823F0F8027B685B69EE
:101F5C00DB00274913430B6015E0264B00221A6067
:101F6C00FFF736FC386108E0FFF732FC02463B69AC
:101F7C00D31A022B01D903237AE11D4B1B6803F002
:101F8C000203002BF0D17B681B6803F00803002BC5
:101F9C003AD07B689B69002B19D0174B01221A6031
:101FAC00FFF716FC386108E0FFF712FC02463B69AC
:101FBC00D31A022B01D903235AE10D4B5B6A03F0B0
:101FCC000203002BF0D0012000F09AFA1CE00A4B1F
:101FDC0000221A60FFF7FCFB38610FE0FFF7F8FBFB
:101FEC0002463B69D31A022B08D9032340E100BFF8
:101FFC000010024000004242800442429E4B5B6A49
:10200C0003F00203002BE9D17B681B6803F0040387
:10201C00002B00F0A6800023FB75974BDB6903F0C7
:10202C008053002B0DD1944BDB69934A43F08053C2
:10203C00D361914BDB6903F08053BB60BB68012318
:10204C00FB758E4B1B6803F48073002B18D18B4BE4
:10205C001B688A4A43F480731360FFF7B9FB38613D
:10206C0008E0FFF7B5FB02463B69D31A642B01D994
:10207C000323FDE0814B1B6803F48073002BF0D02D
:10208C007B68DB68012B06D17B4B1B6A7A4A43F0D9
:10209C00010313622DE07B68DB68002B0CD1764BBF
:1020AC001B6A754A23F001031362734B1B6A724A55
:1020BC0023F0040313621CE07B68DB68052B0CD156
:1020CC006D4B1B6A6C4A43F0040313626A4B1B6A28
:1020DC00694A43F0010313620BE0674B1B6A664AC3
:1020EC0023F001031362644B1B6A634A23F004035D
:1020FC0013627B68DB68002B15D0FFF769FB386136
:10210C000AE0FFF765FB02463B69D31A41F28832BD
:10211C00934201D90323ABE0574B1B6A03F0020334
:10212C00002BEED014E0FFF753FB38610AE0FFF709
:10213C004FFB02463B69D31A41F28832934201D9D4
:10214C00032395E04C4B1B6A03F00203002BEED1EA
:10215C00FB7D012B05D1484BDB69474A23F08053AB
:10216C00D3617B68DB69002B00F08180424B5B689C
:10217C0003F00C03082B61D07B68DB69022B46D182
:10218C003F4B00221A60FFF723FB386108E0FFF792
:10219C001FFB02463B69D31A022B01D9032367E0CC
:1021AC00354B1B6803F00073002BF0D17B681B6A66
:1021BC00B3F5803F08D1304B5B6823F400327B6869
:1021CC009B682D4913434B602B4B5B6823F47412B3
:1021DC007B68196A7B685B6A0B43274913434B6026
:1021EC00274B01221A60FFF7F3FA386108E0FFF77A
:1021FC00EFFA02463B69D31A022B01D9032337E0CD
:10220C001D4B1B6803F00073002BF0D02FE01C4B10
:10221C0000221A60FFF7DCFA386108E0FFF7D8FA01
:10222C0002463B69D31A022B01D9032320E0124B3F
:10223C001B6803F00073002BF0D118E07B68DB699E
:10224C00012B01D1012313E00B4B5B68FB60FB6896
:10225C0003F480327B681B6A9A4206D1FB6803F454
:10226C0070127B685B6A9A4201D0012300E0002364
:10227C0018461837BD4680BD001002400070004063
:10228C006000424280B584B000AF786039607B68F2
:10229C00002B01D10123D0E06A4B1B6803F007032C
:1022AC003A689A4210D9674B1B6823F007026549BC
:1022BC003B6813430B60634B1B6803F007033A68DE
:1022CC009A4201D00123B8E07B681B6803F002033B
:1022DC00002B20D07B681B6803F00403002B05D077
:1022EC00594B5B68584A43F4E06353607B681B6846
:1022FC0003F00803002B05D0534B5B68524A43F4A0
:10230C0060535360504B5B6823F0F0027B689B6812
:10231C004D4913434B607B681B6803F00103002B92
:10232C0040D07B685B68012B07D1474B1B6803F4DB
:10233C000033002B15D101237FE07B685B68022BF7
:10234C0007D1414B1B6803F00073002B09D101230B
:10235C0073E03D4B1B6803F00203002B01D10123FA
:10236C006BE0394B5B6823F003027B685B68364992
:10237C0013434B60FFF72CFAF8600AE0FFF728FADA
:10238C000246FB68D31A41F28832934201D90323E7
:10239C0053E02D4B5B6803F00C027B685B689B0081
:1023AC009A42EBD1274B1B6803F007033A689A4219
:1023BC0010D2244B1B6823F0070222493B681343BD
:1023CC000B60204B1B6803F007033A689A4201D05C
:1023DC00012332E07B681B6803F00403002B08D058
:1023EC00194B5B6823F4E0627B68DB681649134386
:1023FC004B607B681B6803F00803002B09D0124B61
:10240C005B6823F460527B681B69DB000E49134345
:10241C004B6000F021F802460B4B5B681B0903F084
:10242C000F030A49CB5C22FA03F3094A1360094BE8
:10243C001B681846FFF78AF9002318461037BD466B
:10244C0080BD00BF0020024000100240702D00082B
:10245C00180000202000002080B487B000AF0023BB
:10246C00FB600023BB6000237B6100237B600023A7
:10247C003B611E4B5B68FB60FB6803F00C03042B99
:10248C0002D0082B03D027E0194B3B6127E0FB68F7
:10249C009B0C03F00F03174AD35C7B60FB6803F4BF
:1024AC008033002B10D0114B5B685B0C03F00103E5
:1024BC00114AD35CBB607B680D4A02FB03F2BB681C
:1024CC00B2FBF3F37B6104E07B680C4A02FB03F381
:1024DC007B617B693B6102E0054B3B6100BF3B6963
:1024EC0018461C37BD4680BC704700BF0010024028
:1024FC0000127A00802D0008902D000800093D0084
:10250C0080B485B000AF78600A4B1B680A4AA2FB06
:10251C0003235B0A7A6802FB03F3FB6000BFFB68D2
:10252C005A1EFA60002BF9D100BF00BF1437BD460C
:10253C0080BC704718000020D34D621080B582B06B
:10254C0000AF78607B68002B01D1012341E07B68F0
:10255C0093F83D30DBB2002B06D17B68002283F868
:10256C003C207868FEF7B0FD7B68022283F83D20A2
:10257C007B681A687B6804331946104600F056FADB
:10258C007B68012283F846207B68012283F83E2079
:10259C007B68012283F83F207B68012283F840206E
:1025AC007B68012283F841207B68012283F842205A
:1025BC007B68012283F843207B68012283F8442046
:1025CC007B68012283F845207B68012283F83D203B
:1025DC00002318460837BD4680BD000080B485B086
:1025EC0000AF78607B6893F83D30DBB2012B01D0F3
:1025FC00012335E07B68022283F83D207B681B6851
:10260C00DA687B681B6842F00102DA607B681B6841
:10261C00164A934209D07B681B68B3F1804F04D0F3
:10262C007B681B68124A934211D17B681B689B68BC
:10263C0003F00703FB60FB68062B10D07B681B685C
:10264C001A687B681B6842F001021A6007E07B681D
:10265C001B681A687B681B6842F001021A60002331
:10266C0018461437BD4680BC704700BF002C014093
:10267C000004004080B584B000AF78607B681B68B4
:10268C00DB68FB607B681B681B69BB60BB6803F085
:10269C000203002B20D0FB6803F00203002B1BD09D
:1026AC007B681B686FF002021A617B6801221A7743
:1026BC007B681B689B6903F00303002B03D07868CD
:1026CC0000F098F905E0786800F08BF9786800F074
:1026DC009AF97B6800221A77BB6803F00403002B7D
:1026EC0020D0FB6803F00403002B1BD07B681B6815
:1026FC006FF004021A617B6802221A777B681B68F0
:10270C009B6903F44073002B03D0786800F072F9D6
:10271C0005E0786800F065F9786800F074F97B687A
:10272C0000221A77BB6803F00803002B20D0FB684B
:10273C0003F00803002B1BD07B681B686FF00802AA
:10274C001A617B6804221A777B681B68DB6903F0CB
:10275C000303002B03D0786800F04CF905E078688F
:10276C0000F03FF9786800F04EF97B6800221A7788
:10277C00BB6803F01003002B20D0FB6803F01003A0
:10278C00002B1BD07B681B686FF010021A617B68F2
:10279C0008221A777B681B68DB6903F44073002BF3
:1027AC0003D0786800F026F905E0786800F019F994
:1027BC00786800F028F97B6800221A77BB6803F070
:1027CC000103002B0CD0FB6803F00103002B07D096
:1027DC007B681B686FF001021A617868FEF79AFB40
:1027EC00BB6803F08003002B0CD0FB6803F0800364
:1027FC00002B07D07B681B686FF080021A61786829
:10280C0000F06FFABB6803F04003002B0CD0FB68A0
:10281C0003F04003002B07D07B681B686FF040026D
:10282C001A61786800F0F8F8BB6803F02003002BFD
:10283C000CD0FB6803F02003002B07D07B681B68CF
:10284C006FF020021A61786800F042FA00BF10376E
:10285C00BD4680BD80B584B000AF78603960002380
:10286C00FB737B6893F83C30012B01D10223B4E05D
:10287C007B68012283F83C207B68022283F83D2090
:10288C007B681B689B68BB60BB6823F07703BB60ED
:10289C00BB6823F47F43BB607B681B68BA689A6093
:1028AC003B681B68B3F5005F3ED0B3F5005F00F2E8
:1028BC008780B3F5805F00F08680B3F5805F7FD8AA
:1028CC00702B1AD0702B7BD8602B50D0602B77D804
:1028DC00502B3CD0502B73D8402B58D0402B6FD85A
:1028EC00302B64D0302B6BD8202B60D0202B67D8AA
:1028FC00002B5CD0102B5AD062E07B6818683B68C8
:10290C0099683B685A683B68DB6800F06AF97B6839
:10291C001B689B68BB60BB6843F07703BB607B683C
:10292C001B68BA689A604FE07B6818683B689968C6
:10293C003B685A683B68DB6800F053F97B681B689E
:10294C009A687B681B6842F480429A603CE07B6822
:10295C0018683B6859683B68DB681A4600F0CAF88F
:10296C007B681B685021184600F021F92CE07B682D
:10297C0018683B6859683B68DB681A4600F0E8F851
:10298C007B681B686021184600F011F91CE07B681D
:10299C0018683B6859683B68DB681A4600F0AAF86F
:1029AC007B681B684021184600F001F90CE07B683D
:1029BC001A683B681B681946104600F0F8F803E0EB
:1029CC000123FB7300E000BF7B68012283F83D20EC
:1029DC007B68002283F83C20FB7B18461037BD46F1
:1029EC0080BD80B483B000AF786000BF0C37BD46AB
:1029FC0080BC704780B483B000AF786000BF0C37E8
:102A0C00BD4680BC704780B483B000AF786000BF17
:102A1C000C37BD4680BC704780B483B000AF786083
:102A2C0000BF0C37BD4680BC7047000080B485B039
:102A3C0000AF786039607B681B68FB607B682B4A51
:102A4C00934207D07B68B3F1804F03D07B68284A50
:102A5C00934208D1FB6823F07003FB603B685B6812
:102A6C00FA681343FB607B68204A934207D07B686B
:102A7C00B3F1804F03D07B681D4A934208D1FB68A9
:102A8C0023F44073FB603B68DB68FA681343FB601C
:102A9C00FB6823F080023B685B691343FB607B6837
:102AAC00FA681A603B689A687B68DA623B681A6855
:102ABC007B689A627B680D4A934203D13B681A6922
:102ACC007B681A637B6801225A617B681B6903F07F
:102ADC000103002B05D07B681B6923F001027B6886
:102AEC001A6100BF1437BD4680BC7047002C0140F2
:102AFC000004004080B487B000AFF860B9607A6021
:102B0C00FB681B6A7B61FB681B6A23F00102FB6894
:102B1C001A62FB689B693B613B6923F0F0033B61E4
:102B2C007B681B013A6913433B617B6923F00A0301
:102B3C007B617A69BB6813437B61FB683A699A6174
:102B4C00FB687A691A6200BF1C37BD4680BC7047AF
:102B5C0080B487B000AFF860B9607A60FB681B6A1C
:102B6C007B61FB681B6A23F01002FB681A62FB682E
:102B7C009B693B613B6923F470433B617B681B039E
:102B8C003A6913433B617B6923F0A0037B61BB680B
:102B9C001B017A6913437B61FB683A699A61FB6894
:102BAC007A691A6200BF1C37BD4680BC704780B47E
:102BBC0085B000AF786039607B689B68FB60FB6810
:102BCC0023F07003FB603A68FB68134343F0070380
:102BDC00FB607B68FA689A6000BF1437BD4680BC06
:102BEC00704780B487B000AFF860B9607A603B6022
:102BFC00FB689B687B617B6923F47F437B613B684B
:102C0C001A027B681A43BB6813437A6913437B61CE
:102C1C00FB687A699A6000BF1C37BD4680BC704760
:102C2C0080B485B000AF786039607B6893F83C3035
:102C3C00012B01D1022341E07B68012283F83C2067
:102C4C007B68022283F83D207B681B685B68FB6015
:102C5C007B681B689B68BB60FB6823F07003FB60A0
:102C6C003B681B68FA681343FB607B681B68FA6857
:102C7C005A607B681B68144A934209D07B681B68B6
:102C8C00B3F1804F04D07B681B68104A93420CD17F
:102C9C00BB6823F08003BB603B685B68BA68134376
:102CAC00BB607B681B68BA689A607B68012283F8FA
:102CBC003D207B68002283F83C2000231846143703
:102CCC00BD4680BC704700BF002C01400004004092
:102CDC0080B483B000AF786000BF0C37BD4680BCB9
:102CEC00704780B483B000AF786000BF0C37BD462E
:102CFC0080BC704770B500260C4D0D4C641BA410A5
:102D0C00A64209D100F022F800260A4D0A4C641B99
:102D1C00A410A64205D170BD55F8043B9847013666
:102D2C00EEE755F8043B98470136F2E7942D00087E
:102D3C00942D0008942D0008982D00080346024499
:102D4C00934200D1704703F8011BF9E7F8B500BFB7
:102D5C00F8BC08BC9E467047F8B500BFF8BC08BC70
:042D6C009E467047C8
:102D7000000000000000000001020304060708092B
:102D800002030405060708090A0B0C0D0E0F1010AC
:042D9000010200003C
:042D94003101000801
:042D98000D01000821
:102D9C00010002000400050203FF00003F065B4F28
:102DAC00666D7D077F67000000127A000502030242
:082DBC001000000001000000FE
:04000005080016E1F8
:00000001FF
