:020000040800F2
:100000000028002055120008490E00084F0E000875
:10001000550E00085B0E0008610E0008000000008D
:10002000000000000000000000000000670E000853
:10003000730E0008000000007F0E00088B0E000801
:100040009D1200089D1200089D1200089D120008D4
:100050009D1200089D1200089D1200089D120008C4
:100060009D1200089D1200089D1200089D120008B4
:100070009D1200089D1200089D1200089D120008A4
:100080009D1200089D1200089D1200089D12000894
:100090009D1200089D1200089D1200089D12000884
:1000A0009D1200089D1200089D1200089D12000874
:1000B000990E00089D120008000000009D12000823
:1000C0009D12000800000000000000009D120008C2
:1000D000000000009D1200089D12000800000000B2
:1000E0009D1200089D1200089D12000800000000EB
:1000F0000000000000000000000000000000000000
:0C01000000000000000000005FF808F1A3
:10010C0010B5054C237833B9044B13B10448AFF345
:10011C0000800123237010BD24000020000000008B
:10012C00CC28000808B5034B1BB103490348AFF3B7
:10013C00008008BD0000000028000020CC2800082A
:10014C0080B500AFB04B1B78032B00F22B8201A2C1
:10015C0052F823F0710100080D0200083303000867
:10016C0095040008A94B1B68012B14D1A84B1B68E4
:10017C00DBB2184600F066FBA54B1B680133A44AA2
:10018C001360A34B1B68042B02D1A14B00221A60F5
:10019C00FA2000F083FD002000F098FA0346012BB2
:1001AC0016D19C4B1B78002B15D19A4B01221A703F
:1001BC00954B01221A7000F0DDFE03461A46964B51
:1001CC001A7000F073FE4FF47A7000F04BFD02E0F1
:1001DC00904B00221A70914B1B68012B40F0E6816A
:1001EC008F4B1B68002B04D100F060FE8C4B01225E
:1001FC001A6001F021F84FF47A7000F033FDD5E16C
:10020C00854B1B780221184600F098FA7F4B1B682F
:10021C00012B14D17E4B1B68DBB2184600F012FB8D
:10022C007B4B1B6801337A4A1360794B1B68042B98
:10023C0002D1774B00221A60FA2000F02FFD794B87
:10024C001B68012B0AD10821774801F03CFB4021A7
:10025C00754801F038FBFA2000F03CFD002000F05E
:10026C0035FA0346002B16D06A4B1B78002B15D1A0
:10027C00684B01221A70644B02221A7000F084FE43
:10028C0003461A46694B1A7000F010FE4FF47A7050
:10029C0000F0E8FC02E05F4B00221A70012000F035
:1002AC0015FA0346002B1AD0614B1B78002B19D181
:1002BC005F4B01221A70584B1B785A1C5D4B83FB09
:1002CC00021313449911D317C91A0B465B000B4444
:1002DC0059010B44D11ACAB24F4B1A7002E0544B5D
:1002EC0000221A70022000F0F1F90346002B0DD009
:1002FC00514B1B78002B0CD14F4B01221A70464BE3
:10030C001B780021184600F053FE02E04A4B0022F5
:10031C001A70424B1B68012B40F04A814FF47A70E3
:10032C0000F0A0FC44E1414B1B780321184600F07F
:10033C0005FA364B1B68012B14D1354B1B68DBB20D
:10034C00184600F07FFA324B1B680133304A1360B9
:10035C002F4B1B68042B02D12D4B00221A60FA2064
:10036C0000F09CFC2F4B1B68012B0BD120212E483D
:10037C0001F0A9FA4FF480712B4801F0A4FAFA208D
:10038C0000F0A8FC002000F0A1F90346002B16D0C9
:10039C00204B1B78002B15D11E4B01221A701A4BC7
:1003AC0003221A7000F0FAFD03461A46234B1A700A
:1003BC0000F07CFD4FF47A7000F054FC02E0154B19
:1003CC0000221A70012000F081F90346002B37D06F
:1003DC00174B1B78002B36D1154B01221A70134B7F
:1003EC001B785A1C134B83FB021313449911D3171C
:1003FC00C91A0B465B000B4459010B44D11ACAB203
:10040C000A4B1A701FE000BF40000020680000205B
:10041C004C0000204400002041000020640000201B
:10042C00480000206C000020000C0140420000201D
:10043C004500002003B57EA54600002043000020A7
:10044C005F4B00221A70022000F040F90346002B8B
:10045C000DD05C4B1B78002B0CD15A4B01221A701F
:10046C00594B1B780121184600F0A2FD02E0554BB8
:10047C0000221A70554B1B68012B40F09B804FF4E7
:10048C007A7000F0EFFB95E0514B1B780421184675
:10049C0000F054F94F4B1B68012B14D14E4B1B68C9
:1004AC00DBB2184600F0CEF94B4B1B6801334A4ABD
:1004BC001360494B1B68042B02D1474B00221A6076
:1004CC00FA2000F0EBFB454B1B68012B0AD11021E5
:1004DC00434801F0F8F98021414801F0F4F9FA2081
:1004EC0000F0F8FB002000F0F1F80346002B12D0CE
:1004FC003C4B1B78002B11D13A4B01221A703A4B12
:10050C0000221A7000F0F8FC00F0D0FC4FF47A7066
:10051C0000F0A8FB02E0334B00221A70012000F01F
:10052C00D5F80346002B1AD0254B1B78002B19D17C
:10053C00234B01221A70264B1B785A1C2B4B83FB26
:10054C00021313449911D317C91A0B465B000B44C1
:10055C0059010B44D11ACAB21D4B1A7002E0184B48
:10056C0000221A70022000F0B1F80346002B0DD0C7
:10057C00144B1B78002B0CD1124B01221A70144B0C
:10058C001B780221184600F013FD02E00D4B0022EF
:10059C001A700E4B1B68012B0ED14FF47A7000F0C1
:1005AC0061FB09E0104B00221A7006E000BF04E06A
:1005BC0000BF02E000BF00E000BF00BF80BD00BF75
:1005CC00450000204600002042000020640000206E
:1005DC0043000020680000204C0000206C0000202C
:1005EC00000C0140440000204000002003B57EA513
:1005FC0080B483B000AF00237B6011E00D4A7B68B0
:10060C00134401221A700C4A7B68134401221A709D
:10061C000A4A7B68134401221A707B6801337B60A1
:10062C007B68022BEADD00BF00BF0C37BD4680BCE7
:10063C00704700BF540000205800002050000020DC
:10064C0080B582B000AF00237B602DE01A4A7B6836
:10065C0013441978194A7B6813440A461A70184ACD
:10066C007B6832F813301946164801F0FDF8034642
:10067C001946114A7B6813440A461A700E4A7B6865
:10068C0013441A780D497B680B441B789A4208D1A5
:10069C00094A7B68134419780B4A7B6813440A4651
:1006AC001A707B6801337B607B68022BCEDD00BF48
:1006BC0000BF0837BD4680BD540000205800002004
:1006CC0000000020000C01405000002080B483B0DA
:1006DC0000AF0346FB71FB79022B01D9002307E025
:1006EC00FB79064AD35C002B01D1012300E00023E7
:1006FC0018460C37BD4680BC704700BF5000002028
:10070C0080B500AF01224FF400710B4801F0C3F823
:10071C0001224FF48061084801F0BDF801224FF42A
:10072C000061054801F0B7F801224FF480510248EE
:10073C0001F0B1F800BF80BD000C014080B483B063
:10074C0000AF03460A46FB711346BB71FB79174A8F
:10075C00A2FB0323DB08DAB2154B1A70FA79134BA0
:10076C00A3FB0213D9080B469B000B445B00D31A66
:10077C00DAB20F4B5A70BB790C4AA2FB0323DB088D
:10078C00DAB20B4B9A70BA79084BA3FB0213D90857
:10079C000B469B000B445B00D31ADAB2044BDA70A5
:1007AC0000BF0C37BD4680BC704700BFCDCCCCCC55
:1007BC005C00002080B483B000AF0346FB71FB7972
:1007CC000C4AA2FB0323DB08DAB20B4B1A70FA7942
:1007DC00084BA3FB0213D9080B469B000B445B0090
:1007EC00D31ADAB2044B5A7000BF0C37BD4680BC2A
:1007FC00704700BFCDCCCCCC5C00002080B483B063
:10080C0000AF0346FB71FB790C4AA2FB0323DB0808
:10081C00DAB20B4B9A70FA79084BA3FB0213D90886
:10082C000B469B000B445B00D31ADAB2044BDA7014
:10083C0000BF0C37BD4680BC704700BFCDCCCCCCC4
:10084C005C00002080B582B000AF0346FB71FFF75F
:10085C0057FFFB79032B4FD801A252F823F000BFAE
:10086C007D0800089F080008C1080008E30800087C
:10087C00234B1B781A46234B9A5C234B1A7000208F
:10088C0000F046F800224FF40071204801F003F804
:10089C0032E01B4B5B781A461A4B9A5C1A4B5A7017
:1008AC00012000F035F800224FF48061174800F069
:1008BC00F2FF21E0124B9B781A46124B9A5C124BBA
:1008CC009A70022000F024F800224FF400610F48C7
:1008DC0000F0E1FF10E00A4BDB781A46094B9A5CFA
:1008EC00094BDA70032000F013F800224FF480510A
:1008FC00064800F0D0FF00BF00BF0837BD4680BDE2
:10090C005C0000200800002060000020000C01406A
:10091C0080B582B000AF0346FB71FB793B4AD35CD8
:10092C0003F00103002B0CBF01230023DBB21A469A
:10093C000221374800F0AFFFFB79344AD35C5B08E7
:10094C00DBB203F00103002B0CBF01230023DBB24D
:10095C001A4604212E4800F09EFFFB792B4AD35CEB
:10096C009B08DBB203F00103002B0CBF0123002317
:10097C00DBB21A460821264800F08DFFFB79234A8A
:10098C00D35CDB08DBB203F00103002B0CBF0123AB
:10099C000023DBB21A4610211D4800F07CFFFB79C6
:1009AC001A4AD35C1B09DBB203F00103002B0CBF0A
:1009BC0001230023DBB21A462021154800F06BFFFF
:1009CC00FB79124AD35C5B09DBB203F00103002B09
:1009DC000CBF01230023DBB21A4640210C4800F067
:1009EC005AFFFB79094AD35C9B09DBB203F0010384
:1009FC00002B0CBF01230023DBB21A4680210448D4
:100A0C0000F049FF00BF0837BD4680BD60000020E4
:100A1C000008014080B500AF00F03CFC00F028F865
:100A2C0000F0AEF800F060F8104801F091FBFFF711
:100A3C00DFFD0021052000F0BBFA0121022000F0AF
:100A4C00B7FA0221032000F0B3FA00F055FA4FF484
:100A5C007A7000F007F9FA2000F020F94FF47A7060
:100A6C0000F038F9FFF76CFBFCE700BF80000020BA
:100A7C0080B590B000AF07F118032822002118466A
:100A8C0001F016FF3B1D00221A605A609A60DA6072
:100A9C001A610223BB610123BB621023FB6200239A
:100AAC007B6307F11803184600F026FF0346002B62
:100ABC0001D000F0D1F80F237B600023BB60002332
:100ACC00FB6000233B6100237B613B1D002118462A
:100ADC0001F092F90346002B01D000F0BDF800BFE5
:100AEC004037BD4680BD000080B586B000AF07F131
:100AFC00080300221A605A609A60DA603B460022B2
:100B0C001A605A601D4B4FF080421A601B4B41F625
:100B1C003F725A60194B00229A60184B0922DA6016
:100B2C00164B00221A61154B00229A61134801F0F2
:100B3C00BFFA0346002B01D000F08EF84FF480531F
:100B4C00BB6007F1080319460C4801F03DFC034655
:100B5C00002B01D000F080F800233B6000237B6069
:100B6C003B461946054801F015FE0346002B01D003
:100B7C0000F072F800BF1837BD4680BD8000002021
:100B8C0080B586B000AF07F1080300221A605A60E6
:100B9C009A60DA60274B9B69264A43F00403936101
:100BAC00244B9B6903F004037B607B68214B9B699E
:100BBC00204A43F0080393611E4B9B6903F0080322
:100BCC003B603B680022FE211B4800F064FE0022C3
:100BDC0041F6F871194800F05EFEFE23BB6001235C
:100BEC00FB6000233B6102237B6107F1080319467C
:100BFC00114800F0BFFC0723BB600023FB600123FE
:100C0C003B6107F1080319460C4800F0B3FC41F6B0
:100C1C00F873BB600123FB6000233B6102237B6103
:100C2C0007F108031946054800F0A4FC00BF18376B
:100C3C00BD4680BD0010024000080140000C014080
:100C4C0080B582B000AF7860FFF7FAFC00F05EF878
:100C5C0000BF0837BD4680BD80B400AF72B600BF80
:100C6C00FEE7000080B483B000AF78607B68084A70
:100C7C0082FB03129210DB17D31A064A1360064B41
:100C8C0000221A6000BF0C37BD4680BC704700BF05
:100C9C0067666666CC0000206400002080B483B0D8
:100CAC0000AF78607B68084A82FB03129210DB1756
:100CBC00D31A064A1360064B00221A6000BF0C3789
:100CCC00BD4680BC704700BF67666666D0000020DA
:100CDC006800002080B483B000AF78607B68084A5D
:100CEC0082FB03129210DB17D31A064A1360064BD1
:100CFC0000221A6000BF0C37BD4680BC704700BF95
:100D0C0067666666C80000206C00002080B400AFE7
:100D1C00194B1B68002B0BDD174B1B68013B164A4C
:100D2C001360154B1B68002B02D1144B01221A6067
:100D3C00134B1B68002B0BDD114B1B68013B104A3E
:100D4C0013600F4B1B68002B02D10E4B01221A6053
:100D5C000D4B1B68002B0BDD0B4B1B68013B0A4A30
:100D6C001360094B1B68002B02D1084B01221A603F
:100D7C0000BFBD4680BC7047CC0000206400002042
:100D8C00D000002068000020C80000206C0000206B
:100D9C0080B485B000AF154B9B69144A43F0010336
:100DAC009361124B9B6903F00103BB60BB680F4B53
:100DBC00DB690E4A43F08053D3610C4BDB6903F0C3
:100DCC0080537B607B680A4B5B68FB60FB6823F09D
:100DDC00E063FB60FB6843F08063FB60044AFB68E4
:100DEC00536000BF1437BD4680BC704700100240F2
:100DFC000000014080B584B000AF78607B681B6850
:100E0C00B3F1804F13D10C4BDB690B4A43F0010358
:100E1C00D361094BDB6903F00103FB60FB68002223
:100E2C0000211C2000F06FFB1C2000F088FB00BF91
:100E3C001037BD4680BD00BF0010024080B400AF2B
:100E4C00FEE780B400AFFEE780B400AFFEE780B4ED
:100E5C0000AFFEE780B400AFFEE780B400AF00BF88
:100E6C00BD4680BC704780B400AF00BFBD4680BC9F
:100E7C00704780B400AF00BFBD4680BC704780B5E2
:100E8C0000AF00F04DFA00BF80BD000080B500AF90
:100E9C00024801F0A9F900BF80BD00BF800000200E
:100EAC0080B400AF00BFBD4680BC704780B500AFBA
:100EBC00012208210F4800F0EEFC012240210D48D0
:100ECC0000F0E9FC012220210A4800F0E4FC012298
:100EDC004FF48071074800F0DEFC01221021054818
:100EEC0000F0D9FC01228021024800F0D4FC00BFA4
:100EFC0080BD00BF000C014080B400AF134B1A78CA
:100F0C00134B1A70114B5A78124B1A700F4B9A786C
:100F1C00114B1A700D4B1A78104B1A700B4B5A78E8
:100F2C000F4B1A70094B9A780E4B1A70074B1A78A4
:100F3C000D4B1A70054B5A780C4B1A70034B9A7860
:100F4C000B4B1A7000BFBD4680BC70477000002070
:100F5C007300002074000020750000207600002033
:100F6C007700002078000020790000207A00002013
:100F7C007B00002080B400AF024B1B781846BD46A6
:100F8C0080BC70477000002080B400AF024B5B78CF
:100F9C001846BD4680BC70477000002080B400AF7E
:100FAC00024B9B781846BD4680BC704770000020F1
:100FBC0080B483B000AF03460A46FB711346BB7185
:100FCC00BB790449FA79CA5400BF0C37BD4680BCC2
:100FDC00704700BF7000002080B500AF414B1B78FC
:100FEC00022B06D0022B7BDC002B4ED0012B26D003
:100FFC0076E03D4B1B781846FFF700FC01220821D8
:10100C003A4800F048FC01222021384800F043FC0B
:10101C0000221021354800F03EFC334B1B78013B7D
:10102C00DAB2314B1A70304B1B78002B53D1304B4A
:10103C001A78304B1A702B4B01221A704BE02D4B47
:10104C001B781846FFF7DAFB01220821274800F02D
:10105C0022FC00222021254800F01DFC0122102139
:10106C00224800F018FC234B1B78013BDAB2214BD1
:10107C001A70204B1B78002B2FD11F4B1A781F4B4B
:10108C001A70184B00221A7027E01C4B1B7818465C
:10109C00FFF7B4FB00220821144800F0FCFB0122EE
:1010AC002021124800F0F7FB012210210F4800F01C
:1010BC00F2FB124B1B78013BDAB2104B1A700F4B40
:1010CC001B78002B0BD10E4B1A78074B1A70054B63
:1010DC0002221A7003E000BF02E000BF00E000BF74
:1010EC0000BF80BD1800002078000020000C0140DB
:1010FC007A00002077000020790000207600002084
:10110C007B00002080B500AF434B1B78022B54D0E2
:10111C00022B7EDC002B02D0012B27D079E03F4B39
:10112C001B781846FFF746FB002240213C4800F094
:10113C00B2FB01224FF48071394800F0ACFB012264
:10114C008021374800F0A7FB344B1B78013BDAB207
:10115C00324B1A70314B1B78002B55D1314B1A780E
:10116C00314B1A702C4B01221A704DE02E4B1B7810
:10117C001846FFF71FFB01224021294800F08BFB8A
:10118C0000224FF48071264800F085FB012280215B
:10119C00234800F080FB244B1B78013BDAB2224B36
:1011AC001A70214B1B78002B30D1204B1A78204B16
:1011BC001A70194B02221A7028E01D4B1B78184626
:1011CC00FFF7F8FA01224021154800F064FB0122D8
:1011DC004FF48071124800F05EFB00228021104811
:1011EC0000F059FB124B1B78013BDAB2104B1A7012
:1011FC000F4B1B78002B0BD10E4B1A78074B1A7028
:10120C00054B00221A7003E000BF02E000BF00E0B3
:10121C0000BF00BF80BD00BF7C0000207300002019
:10122C00000C01407A000020740000207B0000209C
:10123C00750000207900002080B500AFFFF762FF39
:10124C00FFF7CAFE00BF80BDFFF72AFE0B480C4912
:10125C000C4A002302E0D458C4500433C4188C4206
:10126C00F9D3094A094C002301E013600432A2426D
:10127C00FBD301F0F9FAFFF7CDFB7047000000201B
:10128C00240000201029000824000020D800002091
:10129C00FEE7000080B500AF084B1B68074A43F01F
:1012AC0010031360032000F023F90F2000F008F85E
:1012BC00FFF76EFD0023184680BD00BF00200240E2
:1012CC0080B582B000AF7860124B1A68124B1B7855
:1012DC0019464FF47A73B3FBF1F3B2FBF3F31846F0
:1012EC0000F03BF90346002B01D001230EE07B6894
:1012FC000F2B0AD8002279684FF0FF3000F003F969
:10130C00064A7B681360002300E001231846083767
:10131C00BD4680BD14000020200000201C000020D1
:10132C0080B400AF054B1B781A46054B1B68134461
:10133C00034A136000BFBD4680BC704720000020EC
:10134C00D400002080B400AF024B1B681846BD4689
:10135C0080BC7047D400002080B485B000AF7860AA
:10136C007B6803F00703FB600C4BDB68BB60BA685F
:10137C004FF6FF031340BB60FB681A02BB681343B4
:10138C0043F0BF6343F40033BB60044ABB68D360D3
:10139C0000BF1437BD4680BC704700BF00ED00E0B5
:1013AC0080B400AF044BDB681B0A03F0070318463C
:1013BC00BD4680BC704700BF00ED00E080B483B038
:1013CC0000AF0346FB7197F90730002B0BDBFB7961
:1013DC0003F01F02064997F907305B09012000FA58
:1013EC0002F241F8232000BF0C37BD4680BC704789
:1013FC0000E100E080B483B000AF03463960FB71BC
:10140C0097F90730002B0ADB3B68DAB20C4997F9E5
:10141C0007301201D2B20B4483F800230AE03B6878
:10142C00DAB20849FB7903F00F03043B1201D2B284
:10143C000B441A7600BF0C37BD4680BC704700BF0A
:10144C0000E100E000ED00E080B489B000AFF8608E
:10145C00B9607A60FB6803F00703FB61FB69C3F1B9
:10146C000703042B28BF0423BB61FB690433062B41
:10147C0002D9FB69033B00E000237B614FF0FF3294
:10148C00BB6902FA03F3DA43BB681A407B699A40E2
:10149C004FF0FF317B6901FA03F3D9437B680B40B2
:1014AC00134318462437BD4680BC704780B582B0C4
:1014BC0000AF78607B68013BB3F1807F01D30123DF
:1014CC000FE00A4A7B68013B53600F214FF0FF305D
:1014DC00FFF790FF054B00229A60044B07221A601D
:1014EC00002318460837BD4680BD00BF10E000E061
:1014FC0080B582B000AF78607868FFF72DFF00BF31
:10150C000837BD4680BD80B586B000AF0346B960D4
:10151C007A60FB7300237B61FFF742FF78617A6886
:10152C00B9687869FFF790FF024697F90F301146BA
:10153C001846FFF75FFF00BF1837BD4680BD80B56A
:10154C0082B000AF0346FB7197F907301846FFF7DE
:10155C0035FF00BF0837BD4680BD80B582B000AFF7
:10156C0078607868FFF7A2FF034618460837BD4637
:10157C0080BD000080B48BB000AF78603960002370
:10158C007B6200233B6248E101227B6A02FA03F38F
:10159C00FB613B681B68FA691340BB61BA69FB6964
:1015AC009A4240F037813B685B68A34A93425ED015
:1015BC00A14A934275D8A14A934258D09F4A93426C
:1015CC006FD89F4A934252D09D4A934269D89D4A04
:1015DC0093424CD09B4A934263D89B4A934246D049
:1015EC00994A93425DD8122B2AD8122B59D801A2B2
:1015FC0052F823F07B1600085516000867160008F1
:10160C00A9160008AF160008AF160008AF160008A0
:10161C00AF160008AF160008AF160008AF1600088A
:10162C00AF160008AF160008AF160008AF1600087A
:10163C00AF160008AF1600085D16000871160008FA
:10164C00824A934213D02CE03B68DB683B6229E072
:10165C003B68DB6804333B6224E03B68DB6808339F
:10166C003B621FE03B68DB680C333B621AE03B6873
:10167C009B68002B02D104233B6213E03B689B6800
:10168C00012B05D108233B627B68FA691A6109E0DA
:10169C0008233B627B68FA695A6103E000233B62D2
:1016AC0000E000BFBB69FF2B01D87B6801E07B68C1
:1016BC0004337B61BB69FF2B02D87B6A9B0002E081
:1016CC007B6A083B9B003B617B691A680F213B6975
:1016DC0001FA03F3DB431A40396A3B6901FA03F35D
:1016EC001A437B691A603B685B6803F08053002BDC
:1016FC0000F09080564B9B69554A43F0010393616F
:10170C00534B9B6903F00103BB60BB68514A7B6A76
:10171C009B08023352F82330FB607B6A03F003030F
:10172C009B000F2202FA03F3DB43FA681340FB60C1
:10173C007B68494A93420DD07B68484A934207D054
:10174C007B68474A934201D1022304E0032302E061
:10175C00012300E000237A6A02F003029200934016
:10176C00FA681343FB603B497B6A9B080233FA68B7
:10177C0041F823203B685B6803F48013002B06D0F0
:10178C00384B9A683749BB6913438B6006E0354B7D
:10179C009A68BB69DB43334913408B603B685B68D9
:1017AC0003F40013002B06D02E4BDA682D49BB69CD
:1017BC001343CB6006E02B4BDA68BB69DB4329494A
:1017CC001340CB603B685B6803F40033002B06D0FE
:1017DC00244B5A682349BB6913434B6006E0214BE9
:1017EC005A68BB69DB431F4913404B603B685B681D
:1017FC0003F48033002B06D01A4B1A681949BB69C5
:10180C0013430B6006E0174B1A68BB69DB431549A1
:10181C0013400B607B6A01337B623B681A687B6AFE
:10182C0022FA03F3002B7FF4AFAE00BF00BF2C37BE
:10183C00BD4680BC704700BF000032100000311064
:10184C0000002210000021100000121000001110E6
:10185C00001002400000014000080140000C014053
:10186C00001001400004014080B485B000AF7860E6
:10187C000B467B807B689A687B881340002B02D0D8
:10188C000123FB7301E00023FB73FB7B1846143729
:10189C00BD4680BC704780B483B000AF78600B4607
:1018AC007B8013467B707B78002B03D07A887B6817
:1018BC001A6103E07B881A047B681A6100BF0C373D
:1018CC00BD4680BC704780B485B000AF78600B46D5
:1018DC007B807B68DB68FB607A88FB6813401A04AA
:1018EC00FB68D9437B880B401A437B681A6100BFA5
:1018FC001437BD4680BC704780B586B000AF7860A9
:10190C007B68002B01D101236CE27B681B6803F020
:10191C000103002B00F08780924B5B6803F00C03F3
:10192C00042B0CD08F4B5B6803F00C03082B12D1EB
:10193C008C4B5B6803F48033B3F5803F0BD1894B40
:10194C001B6803F40033002B6CD07B685B68002BA6
:10195C0068D1012346E27B685B68B3F5803F06D112
:10196C00804B1B687F4A43F4803313602EE07B6806
:10197C005B68002B0CD17B4B1B687A4A23F48033B9
:10198C001360784B1B68774A23F4802313601DE0A7
:10199C007B685B68B3F5A02F0CD1724B1B68714A46
:1019AC0043F4802313606F4B1B686E4A43F48033FF
:1019BC0013600BE06B4B1B686A4A23F48033136093
:1019CC00684B1B68674A23F4802313607B685B6851
:1019DC00002B13D0FFF7B6FC386108E0FFF7B2FC20
:1019EC0002463B69D31A642B01D90323FAE15D4B00
:1019FC001B6803F40033002BF0D014E0FFF7A2FCBB
:101A0C00386108E0FFF79EFC02463B69D31A642B51
:101A1C0001D90323E6E1534B1B6803F40033002B7D
:101A2C00F0D100E000BF7B681B6803F00203002BC1
:101A3C0063D04C4B5B6803F00C03002B0BD0494B71
:101A4C005B6803F00C03082B1CD1464B5B6803F45A
:101A5C008033002B16D1434B1B6803F00203002B81
:101A6C0005D07B681B69012B01D00123BAE13D4BEA
:101A7C001B6823F0F8027B685B69DB003949134370
:101A8C000B603AE07B681B69002B20D0364B01229F
:101A9C001A60FFF757FC386108E0FFF753FC024669
:101AAC003B69D31A022B01D903239BE12D4B1B68F5
:101ABC0003F00203002BF0D02A4B1B6823F0F80232
:101ACC007B685B69DB00274913430B6015E0264BF1
:101ADC0000221A60FFF736FC386108E0FFF732FC91
:101AEC0002463B69D31A022B01D903237AE11D4B21
:101AFC001B6803F00203002BF0D17B681B6803F01A
:101B0C000803002B3AD07B689B69002B19D0174B2C
:101B1C0001221A60FFF716FC386108E0FFF712FC8F
:101B2C0002463B69D31A022B01D903235AE10D4B10
:101B3C005B6A03F00203002BF0D0012000F09AFA4C
:101B4C001CE00A4B00221A60FFF7FCFB38610FE027
:101B5C00FFF7F8FB02463B69D31A022B08D9032383
:101B6C0040E100BF001002400000424280044242AB
:101B7C009E4B5B6A03F00203002BE9D17B681B6868
:101B8C0003F00403002B00F0A6800023FB75974B99
:101B9C00DB6903F08053002B0DD1944BDB69934A26
:101BAC0043F08053D361914BDB6903F08053BB60EE
:101BBC00BB680123FB758E4B1B6803F48073002BF1
:101BCC0018D18B4B1B688A4A43F480731360FFF760
:101BDC00B9FB386108E0FFF7B5FB02463B69D31A45
:101BEC00642B01D90323FDE0814B1B6803F4807344
:101BFC00002BF0D07B68DB68012B06D17B4B1B6A7A
:101C0C007A4A43F0010313622DE07B68DB68002BFA
:101C1C000CD1764B1B6A754A23F001031362734B8C
:101C2C001B6A724A23F0040313621CE07B68DB68B6
:101C3C00052B0CD16D4B1B6A6C4A43F004031362E9
:101C4C006A4B1B6A694A43F0010313620BE0674B52
:101C5C001B6A664A23F001031362644B1B6A634AD6
:101C6C0023F0040313627B68DB68002B15D0FFF7AD
:101C7C0069FB38610AE0FFF765FB02463B69D31A42
:101C8C0041F28832934201D90323ABE0574B1B6AD4
:101C9C0003F00203002BEED014E0FFF753FB386186
:101CAC000AE0FFF74FFB02463B69D31A41F2883238
:101CBC00934201D9032395E04C4B1B6A03F00203BA
:101CCC00002BEED1FB7D012B05D1484BDB69474A3C
:101CDC0023F08053D3617B68DB69002B00F081809B
:101CEC00424B5B6803F00C03082B61D07B68DB690B
:101CFC00022B46D13F4B00221A60FFF723FB3861C1
:101D0C0008E0FFF71FFB02463B69D31A022B01D9EF
:101D1C00032367E0354B1B6803F00073002BF0D1F5
:101D2C007B681B6AB3F5803F08D1304B5B6823F4AA
:101D3C0000327B689B682D4913434B602B4B5B68CF
:101D4C0023F474127B68196A7B685B6A0B4327491E
:101D5C0013434B60274B01221A60FFF7F3FA3861EB
:101D6C0008E0FFF7EFFA02463B69D31A022B01D9C0
:101D7C00032337E01D4B1B6803F00073002BF0D0DE
:101D8C002FE01C4B00221A60FFF7DCFA386108E0E8
:101D9C00FFF7D8FA02463B69D31A022B01D9032369
:101DAC0020E0124B1B6803F00073002BF0D118E0FD
:101DBC007B68DB69012B01D1012313E00B4B5B68C2
:101DCC00FB60FB6803F480327B681B6A9A4206D185
:101DDC00FB6803F470127B685B6A9A4201D00123A2
:101DEC0000E0002318461837BD4680BD00100240A5
:101DFC00007000406000424280B584B000AF786053
:101E0C0039607B68002B01D10123D0E06A4B1B6841
:101E1C0003F007033A689A4210D9674B1B6823F00A
:101E2C00070265493B6813430B60634B1B6803F067
:101E3C0007033A689A4201D00123B8E07B681B681B
:101E4C0003F00203002B20D07B681B6803F0040313
:101E5C00002B05D0594B5B68584A43F4E063536040
:101E6C007B681B6803F00803002B05D0534B5B68A1
:101E7C00524A43F460535360504B5B6823F0F002BA
:101E8C007B689B684D4913434B607B681B6803F070
:101E9C000103002B40D07B685B68012B07D1474BBB
:101EAC001B6803F40033002B15D101237FE07B6802
:101EBC005B68022B07D1414B1B6803F00073002BAE
:101ECC0009D1012373E03D4B1B6803F00203002B87
:101EDC0001D101236BE0394B5B6823F003027B6873
:101EEC005B68364913434B60FFF72CFAF8600AE045
:101EFC00FFF728FA0246FB68D31A41F28832934264
:101F0C0001D9032353E02D4B5B6803F00C027B6873
:101F1C005B689B009A42EBD1274B1B6803F00703CD
:101F2C003A689A4210D2244B1B6823F007022249CC
:101F3C003B6813430B60204B1B6803F007033A68A4
:101F4C009A4201D0012332E07B681B6803F0040342
:101F5C00002B08D0194B5B6823F4E0627B68DB68CC
:101F6C00164913434B607B681B6803F00803002B76
:101F7C0009D0124B5B6823F460527B681B69DB0051
:101F8C000E4913434B6000F021F802460B4B5B6883
:101F9C001B0903F00F030A49CB5C22FA03F3094A2D
:101FAC001360094B1B681846FFF78AF90023184683
:101FBC001037BD4680BD00BF00200240001002401B
:101FCC00E4280008140000201C00002080B487B016
:101FDC0000AF0023FB600023BB6000237B61002368
:101FEC007B6000233B611E4B5B68FB60FB6803F06E
:101FFC000C03042B02D0082B03D027E0194B3B61B8
:10200C0027E0FB689B0C03F00F03174AD35C7B6043
:10201C00FB6803F48033002B10D0114B5B685B0C16
:10202C0003F00103114AD35CBB607B680D4A02FBD1
:10203C0003F2BB68B2FBF3F37B6104E07B680C4AF0
:10204C0002FB03F37B617B693B6102E0054B3B6167
:10205C0000BF3B6918461C37BD4680BC704700BFAB
:10206C000010024000127A00F4280008042900082D
:10207C0000093D0080B485B000AF78600A4B1B6846
:10208C000A4AA2FB03235B0A7A6802FB03F3FB6098
:10209C0000BFFB685A1EFA60002BF9D100BF00BFCD
:1020AC001437BD4680BC704714000020D34D62101D
:1020BC0080B582B000AF78607B68002B01D1012322
:1020CC0041E07B6893F83D30DBB2002B06D17B6896
:1020DC00002283F83C207868FEF78CFE7B68022295
:1020EC0083F83D207B681A687B68043319461046D8
:1020FC0000F056FA7B68012283F846207B680122A7
:10210C0083F83E207B68012283F83F207B68012204
:10211C0083F840207B68012283F841207B680122F0
:10212C0083F842207B68012283F843207B680122DC
:10213C0083F844207B68012283F845207B680122C8
:10214C0083F83D20002318460837BD4680BD0000AB
:10215C0080B485B000AF78607B6893F83D30DBB21B
:10216C00012B01D0012335E07B68022283F83D204E
:10217C007B681B68DA687B681B6842F00102DA60D6
:10218C007B681B68164A934209D07B681B68B3F1C5
:10219C00804F04D07B681B68124A934211D17B6834
:1021AC001B689B6803F00703FB60FB68062B10D0D1
:1021BC007B681B681A687B681B6842F001021A6016
:1021CC0007E07B681B681A687B681B6842F0010299
:1021DC001A60002318461437BD4680BC704700BFF8
:1021EC00002C01400004004080B584B000AF786042
:1021FC007B681B68DB68FB607B681B681B69BB60CA
:10220C00BB6803F00203002B20D0FB6803F0020331
:10221C00002B1BD07B681B686FF002021A617B6875
:10222C0001221A777B681B689B6903F00303002B60
:10223C0003D0786800F098F905E0786800F08BF925
:10224C00786800F09AF97B6800221A77BB6803F073
:10225C000403002B20D0FB6803F00403002B1BD0DD
:10226C007B681B686FF004021A617B6802221A7784
:10227C007B681B689B6903F44073002B03D0786860
:10228C0000F072F905E0786800F065F9786800F004
:10229C0074F97B6800221A77BB6803F00803002BE3
:1022AC0020D0FB6803F00803002B1BD07B681B6855
:1022BC006FF008021A617B6804221A777B681B682E
:1022CC00DB6903F00303002B03D0786800F04CF9B2
:1022DC0005E0786800F03FF9786800F04EF97B680B
:1022EC0000221A77BB6803F01003002B20D0FB6888
:1022FC0003F01003002B1BD07B681B686FF01002DF
:10230C001A617B6808221A777B681B68DB6903F407
:10231C004073002B03D0786800F026F905E078684C
:10232C0000F019F9786800F028F97B6800221A7718
:10233C00BB6803F00103002B0CD0FB6803F0010316
:10234C00002B07D07B681B686FF001021A6178685C
:10235C00FEF776FCBB6803F08003002B0CD0FB6807
:10236C0003F08003002B07D07B681B686FF08002A2
:10237C001A61786800F06FFABB6803F04003002B19
:10238C000CD0FB6803F04003002B07D07B681B6864
:10239C006FF040021A61786800F0F8F8BB6803F03F
:1023AC002003002B0CD0FB6803F02003002B07D07C
:1023BC007B681B686FF020021A61786800F042FAA3
:1023CC0000BF1037BD4680BD80B584B000AF7860CB
:1023DC0039600023FB737B6893F83C30012B01D1EF
:1023EC000223B4E07B68012283F83C207B68022244
:1023FC0083F83D207B681B689B68BB60BB6823F03F
:10240C007703BB60BB6823F47F43BB607B681B68AE
:10241C00BA689A603B681B68B3F5005F3ED0B3F5B1
:10242C00005F00F28780B3F5805F00F08680B3F523
:10243C00805F7FD8702B1AD0702B7BD8602B50D03C
:10244C00602B77D8502B3CD0502B73D8402B58D0C6
:10245C00402B6FD8302B64D0302B6BD8202B60D016
:10246C00202B67D8002B5CD0102B5AD062E07B68F5
:10247C0018683B6899683B685A683B68DB6800F0F1
:10248C006AF97B681B689B68BB60BB6843F0770389
:10249C00BB607B681B68BA689A604FE07B68186801
:1024AC003B6899683B685A683B68DB6800F053F9F5
:1024BC007B681B689A687B681B6842F480429A6050
:1024CC003CE07B6818683B6859683B68DB681A46D7
:1024DC0000F0CAF87B681B685021184600F021F9FF
:1024EC002CE07B6818683B6859683B68DB681A46C7
:1024FC0000F0E8F87B681B686021184600F011F9C1
:10250C001CE07B6818683B6859683B68DB681A46B6
:10251C0000F0AAF87B681B684021184600F001F90E
:10252C000CE07B681A683B681B681946104600F083
:10253C00F8F803E00123FB7300E000BF7B68012285
:10254C0083F83D207B68002283F83C20FB7B1846F7
:10255C001037BD4680BD80B483B000AF786000BF3B
:10256C000C37BD4680BC704780B483B000AF786038
:10257C0000BF0C37BD4680BC704780B483B000AF41
:10258C00786000BF0C37BD4680BC704780B483B008
:10259C0000AF786000BF0C37BD4680BC70470000B0
:1025AC0080B485B000AF786039607B681B68FB60D5
:1025BC007B682B4A934207D07B68B3F1804F03D0E2
:1025CC007B68284A934208D1FB6823F07003FB60B8
:1025DC003B685B68FA681343FB607B68204A934254
:1025EC0007D07B68B3F1804F03D07B681D4A9342C0
:1025FC0008D1FB6823F44073FB603B68DB68FA6826
:10260C001343FB60FB6823F080023B685B69134358
:10261C00FB607B68FA681A603B689A687B68DA62D0
:10262C003B681A687B689A627B680D4A934203D1B7
:10263C003B681A697B681A637B6801225A617B6864
:10264C001B6903F00103002B05D07B681B6923F089
:10265C0001027B681A6100BF1437BD4680BC70470D
:10266C00002C01400004004080B487B000AFF8603B
:10267C00B9607A60FB681B6A7B61FB681B6A23F09C
:10268C000102FB681A62FB689B693B613B6923F0A2
:10269C00F0033B617B681B013A6913433B617B6927
:1026AC0023F00A037B617A69BB6813437B61FB6887
:1026BC003A699A61FB687A691A6200BF1C37BD4699
:1026CC0080BC704780B487B000AFF860B9607A60A6
:1026DC00FB681B6A7B61FB681B6A23F01002FB68BA
:1026EC001A62FB689B693B613B6923F470433B6155
:1026FC007B681B033A6913433B617B6923F0A0039E
:10270C007B61BB681B017A6913437B61FB683A6987
:10271C009A61FB687A691A6200BF1C37BD4680BC9F
:10272C00704780B485B000AF786039607B689B6877
:10273C00FB60FB6823F07003FB603A68FB68134393
:10274C0043F00703FB607B68FA689A6000BF14379C
:10275C00BD4680BC704780B487B000AFF860B960EC
:10276C007A603B60FB689B687B617B6923F47F43E9
:10277C007B613B681A027B681A43BB6813437A6916
:10278C0013437B61FB687A699A6000BF1C37BD46B6
:10279C0080BC704780B485B000AF786039607B68CE
:1027AC0093F83C30012B01D1022341E07B680122DC
:1027BC0083F83C207B68022283F83D207B681B68F1
:1027CC005B68FB607B681B689B68BB60FB6823F0E5
:1027DC007003FB603B681B68FA681343FB607B6803
:1027EC001B68FA685A607B681B68144A934209D0CC
:1027FC007B681B68B3F1804F04D07B681B68104A60
:10280C0093420CD1BB6823F08003BB603B685B68D0
:10281C00BA681343BB607B681B68BA689A607B68B4
:10282C00012283F83D207B68002283F83C200023A2
:10283C0018461437BD4680BC704700BF002C0140C1
:10284C000004004080B483B000AF786000BF0C3748
:10285C00BD4680BC704780B483B000AF786000BFC9
:10286C000C37BD4680BC704770B500260C4D0D4C26
:10287C00641BA410A64209D100F022F800260A4DD0
:10288C000A4C641BA410A64205D170BD55F8043B3C
:10289C0098470136EEE755F8043B98470136F2E7C6
:1028AC000829000808290008082900080C29000834
:1028BC0003460244934200D1704703F8011BF9E729
:1028CC00F8B500BFF8BC08BC9E467047F8B500BF11
:0828DC00F8BC08BC9E467047E1
:1028E40000000000000000000102030406070809BC
:1028F40002030405060708090A0B0C0D0E0F10103D
:0429040001020000CC
:042908003101000891
:04290C000D010008B1
:1029100001000200040000003F065B4F666D7D076A
:102920007F67000000127A00020000001000000023
:0429300001000000A2
:040000050800125588
:00000001FF
