:020000040800F2
:1000000000280020D5190008111400081714000852
:100010001D14000823140008291400080000000023
:100020000000000000000000000000002F14000885
:100030003B14000800000000471400085314000897
:100040001D1A00081D1A00081D1A00081D1A0008B4
:100050001D1A00081D1A00081D1A00081D1A0008A4
:100060001D1A00081D1A00081D1A00081D1A000894
:100070001D1A00081D1A00081D1A00081D1A000884
:100080001D1A00081D1A00081D1A00081D1A000874
:100090001D1A00081D1A00081D1A00081D1A000864
:1000A0001D1A00081D1A00081D1A00081D1A000854
:1000B000611400081D1A0008000000001D1A000845
:1000C0001D1A000800000000000000001D1A0008B2
:1000D000000000001D1A00081D1A000800000000A2
:1000E0001D1A00081D1A00081D1A00080000000053
:1000F0000000000000000000000000000000000000
:0C01000000000000000000005FF808F1A3
:10010C0010B5054C237833B9044B13B10448AFF345
:10011C0000800123237010BD280000200000000087
:10012C009430000808B5034B1BB103490348AFF3E7
:10013C00008008BD000000002C0000209430000856
:10014C0080B483B000AF00237B6011E00D4A7B6864
:10015C00134401221A700C4A7B68134401221A7052
:10016C000A4A7B68134401221A707B6801337B6056
:10017C007B68032BEADD00BF00BF0C37BD4680BC9B
:10018C00704700BF480000204C00002044000020B5
:10019C0080B582B000AF00237B602DE01A4A7B68EB
:1001AC0013441978194A7B6813440A461A70184A82
:1001BC007B6832F813301946164801F039FF0346B4
:1001CC001946114A7B6813440A461A700E4A7B681A
:1001DC0013441A780D497B680B441B789A4208D15A
:1001EC00094A7B68134419780B4A7B6813440A4606
:1001FC001A707B6801337B607B68032BCEDD00BFFC
:10020C0000BF0837BD4680BD480000204C000020D0
:10021C0000000020000C01404400002080B483B09A
:10022C0000AF0346FB71FB79032B01D9002307E0D8
:10023C00FB79064AD35C002B01D1012300E000239B
:10024C0018460C37BD4680BC704700BF44000020E8
:10025C0080B582B000AF7860584B93F90030B3F1A1
:10026C00FF3F04D17B685AB2544B1A70A3E0534B36
:10027C0093F900301A467B68934204D17B685AB2DA
:10028C004E4B1A7097E04D4B93F90030022B58D01F
:10029C00022B7ADC002B02D0012B2ED075E07B6870
:1002AC00012B03D07B68022B13D06EE0444B1A78E1
:1002BC00444B1B789A4208D9414B1A78414B1B7816
:1002CC00D31ADAB2404B1A7016E03F4B01221A7067
:1002DC0012E03B4B1A783C4B1B789A4208D9384BAE
:1002EC001A78394B1B78D31ADAB2364B1A7002E0F3
:1002FC00344B01221A7000BF47E07B68002B03D0FF
:10030C007B68022B13D040E02D4B1A782D4B1B78B9
:10031C009A4208D92A4B1A782A4B1B78D31ADAB28C
:10032C00294B1A700CE0284B01221A7008E0254B5F
:10033C001A78254B1B781344DAB2214B1A7000BF84
:10034C0023E07B68002B03D07B68012B13D01BE0D0
:10035C001B4B1A781C4B1B789A4208D9184B1A78ED
:10036C00194B1B78D31ADAB2164B1A700CE0154BDA
:10037C0001221A7008E0134B1A78134B1B781344A4
:10038C00DAB20F4B1A7000BF00BF0D4B1B7818462A
:10039C0001F006F90B4B1B78184601F01BF90A4BC0
:1003AC001B78184601F030F901F048F901F08EF98C
:1003BC00024BFF221A700837BD4680BD0B0000208F
:1003CC0008000020090000200A00002080B400AFC3
:1003DC000B4B1B781A460B4B1B7819460A4B1B7898
:1003EC000B449A4207D0074B1A78074B1B781344DF
:1003FC00DAB2034B1A7000BFBD4680BC704700BF19
:10040C0008000020090000200A00002080B500AF81
:10041C00164B00221A70164B00221A70154B002234
:10042C001A70154B00221A70144B00221A70144BC0
:10043C0000221A70134B00221A60134BFF221A7001
:10044C00124B1B78184601F0ABF8114B1B78184671
:10045C0001F0C0F80F4B1B78184601F0D5F801F0ED
:10046C00EDF801F033F900BF80BD00BF5100002052
:10047C0052000020530000205400002055000020A2
:10048C00560000205C0000200B000020080000201B
:10049C00090000200A00002080B500AF9D4B1B68AE
:1004AC00002B13D101F00CF800F0E4FF01F084FAFA
:1004BC00984B01221A604FF47A7000F0A3FE0020D2
:1004CC0000F0D8FE0A2000F0B9FED0E2924B1B7867
:1004DC00042B00F0A682904B1B78032B00F29D821C
:1004EC0001A252F823F000BF05050008BF05000863
:1004FC0055070008B5080008884B1B68002B08D06E
:10050C00864B00221A6001F057FA4FF47A7000F013
:10051C0079FE0020FFF782FE0346002B22D0804B91
:10052C001B78002B1ED17E4B01221A707A4B0122B4
:10053C001A7001F017F803461A467A4B1A7000F03D
:10054C0099FF00220821784801F089FD0022402102
:10055C00754801F084FDFA2000F08CFE734B0022EC
:10056C001A6008E00020FFF759FE0346002B02D169
:10057C006B4B00221A706E4B1B68002B00F07082C4
:10058C006B4B00221A60694B1B68DBB2184600F0FB
:10059C0025FC664B1B6801335A4203F0030302F03F
:1005AC00030258BF5342614A1360FA2000F046FE22
:1005BC0056E25C4B1B780221184600F08BFB5D4B1E
:1005CC001B68002B0DD05B4B00221A60082156488B
:1005DC0001F05DFD4021544801F059FDFA2000F076
:1005EC0049FE0020FFF71AFE0346002B23D04C4B8C
:1005FC001B78002B1FD14A4B01221A70464B02224A
:10060C001A7000F0B9FF03461A464B4B1A7000F0F3
:10061C0031FF00222021444801F021FD00224FF43B
:10062C008071414801F01BFDFA2000F023FE3F4B86
:10063C0000221A6008E00020FFF7F0FD0346002BB3
:10064C0002D1374B00221A700120FFF7E7FD034659
:10065C00002B14D0394B1B78002B10D1374B0122B7
:10066C001A70304B1B780133DAB22E4B1A702D4BAB
:10067C001B78632B0CD92B4B01221A7008E001203C
:10068C00FFF7CCFD0346002B02D12C4B00221A7035
:10069C000220FFF7C3FD0346002B13D0284B1B7819
:1006AC00002B0FD1264B01221A701E4B1A78254BAA
:1006BC001A70244B1B78184600F072FF0020FFF7CD
:1006CC00C7FD08E00220FFF7A9FD0346002B02D16D
:1006DC001B4B00221A70164B1B68002B00F0C281BA
:1006EC00134B00221A60114B1B68DBB2184600F04A
:1006FC0075FB0E4B1B6801335A4203F0030302F0E7
:10070C00030258BF5342094A1360FA2000F096FDC9
:10071C00A8E100BF58000020500000207C00002001
:10072C005400002051000020000C01405C0000200F
:10073C008000002084000020520000205500002082
:10074C005600002008000020B74B1B7803211846E8
:10075C0000F0C0FAB54B1B68002B0ED0B34B002237
:10076C001A602021B24801F092FC4FF48071B0481D
:10077C0001F08DFCFA2000F07DFD0020FFF74EFD0E
:10078C000346002B22D0AB4B1B78002B1ED1A94B60
:10079C0001221A70A84B03221A7000F0F7FE0346D0
:1007AC001A46A64B1A7000F065FE00221021A048D4
:1007BC0001F055FC002280219D4801F050FCFA20EC
:1007CC0000F058FD9E4B00221A6008E00020FFF755
:1007DC0025FD0346002B02D1964B00221A700120F6
:1007EC00FFF71CFD0346002B14D0964B1B78002BF7
:1007FC0010D1944B01221A708B4B1B780133DAB257
:10080C00894B1A70884B1B78632B0CD9864B0122B1
:10081C001A7008E00120FFF701FD0346002B02D1FE
:10082C00884B00221A700220FFF7F8FC0346002BBD
:10083C0013D0854B1B78002B0FD1834B01221A70E0
:10084C00794B1A78814B1A70804B1B78184600F044
:10085C00C1FE0120FFF7FCFC08E00220FFF7DEFCE4
:10086C000346002B02D1784B00221A70784B1B6880
:10087C00002B00F0F980764B00221A60704B1B683D
:10088C00DBB2184600F0AAFA6D4B1B6801335A42D2
:10089C0003F0030302F0030258BF5342684A13608B
:1008AC00FA2000F0CBFCDFE0644B1B7804211846E7
:1008BC0000F010FA5D4B1B68002B0DD05B4B002237
:1008CC001A6010215A4801F0E2FB8021584801F0CF
:1008DC00DEFBFA2000F0CEFC0020FFF79FFC034665
:1008EC00002B2DD0534B1B78002B29D1514B0122BF
:1008FC001A70FFF76BFD574B1B78184600F050FE33
:10090C00524B1B78184600F065FE534B1B7818466B
:10091C0000F07AFE00F092FE00F0D8FE4F4BFF2262
:10092C001A7000F0A7FD01F047F84FF47A7000F050
:10093C0069FC414B00221A70414B00221A6008E0FE
:10094C000020FFF76BFC0346002B02D1394B002231
:10095C001A700120FFF762FC0346002B14D0394BB0
:10096C001B78002B10D1374B01221A70334B1B789C
:10097C000133DAB2314B1A70304B1B78632B0CD924
:10098C002E4B01221A7008E00120FFF747FC0346AA
:10099C00002B02D12B4B00221A700220FFF73EFCD9
:1009AC000346002B13D0284B1B78002B0FD1264B62
:1009BC0001221A70214B1A78274B1A70264B1B7880
:1009CC00184600F021FE0220FFF742FC08E002204E
:1009DC00FFF724FC0346002B02D11B4B00221A709C
:1009EC001B4B1B68002B41D0194B00221A60144B77
:1009FC001B68DBB2184600F0F1F9114B1B68013390
:100A0C005A4203F0030302F0030258BF53420C4A4C
:100A1C001360FA2000F012FC28E0074B00221A7039
:100A2C0025E000BF23E000BF52000020840000201E
:100A3C00000C014054000020500000205300002006
:100A4C005C0000205500002056000020090000200A
:100A5C0080000020080000200A0000200B0000206D
:100A6C0000BF04E000BF02E000BF00E000BF80BD9B
:100A7C0080B500AF01220821124801F0F0FA0122E2
:100A8C004021104801F0EBFA012220210D4801F021
:100A9C00E6FA01224FF480710A4801F0E0FA0122D3
:100AAC001021084801F0DBFA01228021054801F0F1
:100ABC00D6FA01224FF48071034801F0D0FA00BF3E
:100ACC0080BD00BF000C01400008014080B582B021
:100ADC0000AF0346FB71FB79002B0CBF01230023F5
:100AEC00DBB21A464FF48071034801F0B8FA00BF2C
:100AFC000837BD4680BD00BF0008014080B582B0FC
:100B0C0000AF0346FB71FFF7B3FFFB79002B02D05C
:100B1C00012B0BD015E0002208210C4801F09FFAA4
:100B2C0000228021094801F09AFA0AE000221021E3
:100B3C00064801F094FA00224021044801F08FFA93
:100B4C0000BF00BF0837BD4680BD00BF000C014090
:100B5C0080B500AFFFF78CFF00F09EF8064B00222B
:100B6C001A70054B1B781846FFF7C8FF0020FFF7DB
:100B7C00ADFF00BF80BD00BF6000002080B500AF9E
:100B8C003F4B1B78042B09D00320FFF747FB034690
:100B9C00002B03D10020FFF799FF6FE00320FFF734
:100BAC003DFB0346002B10D0364B1B78002B0FD18E
:100BBC00344B01221A70324B1B78002B08D1304B6E
:100BCC0004221A70FFF7C4FF02E02E4B00221A70A9
:100BDC002B4B1B78042B50D10120FFF71FFB034636
:100BEC00002B21D0284B1B78002B20D1264B012227
:100BFC001A700120FFF76AFF4FF4FA6000F06CFFE7
:100C0C00224B1B78002B03D1204B01221A7002E0DF
:100C1C001E4B00221A701D4B1B781846FFF76EFFF7
:100C2C000020FFF753FF02E0174B00221A70002040
:100C3C00FFF7F4FA0346002B0BD0154B1B78002B57
:100C4C001CD1134B01221A70FFF712FF00F024F88D
:100C5C0014E00F4B1B78012B0BD1094B1B78042B89
:100C6C0007D1FFF7D3FB064B00221A70094B002269
:100C7C001A60074B00221A7000E000BF80BD00BF55
:100C8C005000002063000020620000206000002063
:100C9C00610000205800002080B500AF01224FF405
:100CAC0000710B4801F0DBF901224FF48061084818
:100CBC0001F0D5F901224FF40061054801F0CFF99C
:100CCC0001224FF48051024801F0C9F900BF80BDE8
:100CDC00000C014080B483B000AF03460A46FB71A0
:100CEC001346BB71FB79174AA2FB0323DB08DAB26C
:100CFC00154B1A70FA79134BA3FB0213D9080B4648
:100D0C009B000B445B00D31ADAB20F4B5A70BB79C1
:100D1C000C4AA2FB0323DB08DAB20B4B9A70BA79AC
:100D2C00084BA3FB0213D9080B469B000B445B003A
:100D3C00D31ADAB2044BDA7000BF0C37BD4680BC54
:100D4C00704700BFCDCCCCCC6400002080B483B005
:100D5C0000AF0346FB71FB790C4AA2FB0323DB08B3
:100D6C00DAB20B4B1A70FA79084BA3FB0213D908B1
:100D7C000B469B000B445B00D31ADAB2044B5A703F
:100D8C0000BF0C37BD4680BC704700BFCDCCCCCC6F
:100D9C006400002080B483B000AF0346FB71FB7984
:100DAC000C4AA2FB0323DB08DAB20B4B9A70FA79DC
:100DBC00084BA3FB0213D9080B469B000B445B00AA
:100DCC00D31ADAB2044BDA7000BF0C37BD4680BCC4
:100DDC00704700BFCDCCCCCC6400002080B582B075
:100DEC0000AF0346FB71FFF757FFFB79032B4FD87E
:100DFC0001A252F823F000BF150E0008370E0008B0
:100E0C00590E00087B0E0008234B1B781A46234B07
:100E1C009A5C234B1A70002000F046F800224FF425
:100E2C000071204801F01BF932E01B4B5B781A462D
:100E3C001A4B9A5C1A4B5A70012000F035F80022BC
:100E4C004FF48061174801F00AF921E0124B9B78AE
:100E5C001A46124B9A5C124B9A70022000F024F83E
:100E6C0000224FF400610F4801F0F9F810E00A4B32
:100E7C00DB781A46094B9A5C094BDA70032000F0B8
:100E8C0013F800224FF48051064801F0E8F800BF37
:100E9C0000BF0837BD4680BD640000200C00002058
:100EAC0068000020000C014080B582B000AF034602
:100EBC00FB71FB793B4AD35C03F00103002B0CBFA5
:100ECC0001230023DBB21A460221374801F0C7F890
:100EDC00FB79344AD35C5B08DBB203F00103002BD3
:100EEC000CBF01230023DBB21A4604212E4801F06B
:100EFC00B6F8FB792B4AD35C9B08DBB203F00103F9
:100F0C00002B0CBF01230023DBB21A460821264814
:100F1C0001F0A5F8FB79234AD35CDB08DBB203F0C4
:100F2C000103002B0CBF01230023DBB21A46102156
:100F3C001D4801F094F8FB791A4AD35C1B09DBB20B
:100F4C0003F00103002B0CBF01230023DBB21A4674
:100F5C002021154801F083F8FB79124AD35C5B0918
:100F6C00DBB203F00103002B0CBF01230023DBB227
:100F7C001A4640210C4801F072F8FB79094AD35CFF
:100F8C009B09DBB203F00103002B0CBF01230023F0
:100F9C00DBB21A468021044801F061F800BF083723
:100FAC00BD4680BD680000200008014080B500AF40
:100FBC0000F030FD00F028F800F0AEF800F060F81A
:100FCC00104801F0A9FCFFF7BBF80021052000F048
:100FDC00B5FA0121022000F0B1FA0221032000F041
:100FEC00ADFA00F06DFA4FF47A7000F00BF9FA20BC
:100FFC0000F040F9FA2000F021F9FFF74DFAFFF765
:10100C00BDFDFAE79800002080B590B000AF07F165
:10101C00180328220021184602F02EF83B1D00224E
:10102C001A605A609A60DA601A610223BB6101236C
:10103C00BB621023FB6200237B6307F11803184685
:10104C0001F03EF80346002B01D000F0D5F80F2339
:10105C007B600023BB600023FB6000233B6100230B
:10106C007B613B1D0021184601F0AAFA0346002BB8
:10107C0001D000F0C1F800BF4037BD4680BD000074
:10108C0080B586B000AF07F1080300221A605A60E1
:10109C009A60DA603B4600221A605A601D4B4FF092
:1010AC0080421A601B4B41F63F725A60194B00226A
:1010BC009A60184B0822DA60164B00221A61154B05
:1010CC0000229A61134801F0D7FB0346002B01D094
:1010DC0000F092F84FF48053BB6007F108031946F7
:1010EC000C4801F055FD0346002B01D000F084F8AC
:1010FC0000233B6000237B603B461946054801F00A
:10110C002DFF0346002B01D000F076F800BF1837F6
:10111C00BD4680BD9800002080B586B000AF07F1B9
:10112C00080300221A605A609A60DA60294B9B69A6
:10113C00284A43F004039361264B9B6903F0040394
:10114C007B607B68234B9B69224A43F008039361C5
:10115C00204B9B6903F008033B603B6800224FF473
:10116C00FF711D4800F07BFF002241F6F8711B480F
:10117C0000F075FF4FF4FF73BB600123FB6000238D
:10118C003B6102237B6107F108031946124800F00A
:10119C00D5FD42F20703BB600023FB6001233B61DA
:1011AC0007F1080319460D4800F0C8FD41F6F87325
:1011BC00BB600123FB6000233B6102237B6107F1D1
:1011CC0008031946054800F0B9FD00BF1837BD46A5
:1011DC0080BD00BF0010024000080140000C01401F
:1011EC0080B582B000AF7860FEF7D2FF00F05EF8F9
:1011FC0000BF0837BD4680BD80B400AF72B600BFDB
:10120C00FEE7000080B483B000AF78607B68084ACA
:10121C0082FB03129210DB17D31A064A1360064B9B
:10122C0000221A6000BF0C37BD4680BC704700BF5F
:10123C00676666666C0000207C00002080B483B07A
:10124C0000AF78607B68084A82FB03129210DB17B0
:10125C00D31A064A1360064B00221A6000BF0C37E3
:10126C00BD4680BC704700BF676666667000002094
:10127C008000002080B483B000AF78607B68084A9F
:10128C0082FB03129210DB17D31A064A1360064B2B
:10129C0000221A6000BF0C37BD4680BC704700BFEF
:1012AC0067666666740000208400002080B400AF7E
:1012BC00214B1B68002B0BDD1F4B1B68013B1E4A8F
:1012CC0013601D4B1B68002B02D11C4B01221A60B2
:1012DC001B4B1B68002B0BDD194B1B68013B184A81
:1012EC001360174B1B68002B02D1164B01221A609E
:1012FC00154B1B68002B0BDD134B1B68013B124A73
:10130C001360114B1B68002B02D1104B01221A6089
:10131C000F4B1B68002B0BDD0D4B1B68013B0C4A64
:10132C0013600B4B1B68002B02D10A4B01221A6075
:10133C0000BFBD4680BC70476C0000207C000020C4
:10134C007000002080000020740000208400002029
:10135C00780000208800002080B485B000AF154BC9
:10136C009B69144A43F001039361124B9B6903F090
:10137C000103BB60BB680F4BDB690E4A43F0805323
:10138C00D3610C4BDB6903F080537B607B680A4BA9
:10139C005B68FB60FB6823F0E063FB60FB6843F079
:1013AC008063FB60044AFB68536000BF1437BD4682
:1013BC0080BC7047001002400000014080B584B032
:1013CC0000AF78607B681B68B3F1804F13D10C4B76
:1013DC00DB690B4A43F00103D361094BDB6903F072
:1013EC000103FB60FB68002200211C2000F06FFC55
:1013FC001C2000F088FC00BF1037BD4680BD00BF2C
:10140C000010024080B400AFFEE780B400AFFEE7EE
:10141C0080B400AFFEE780B400AFFEE780B400AF4D
:10142C00FEE780B400AF00BFBD4680BC704780B4FF
:10143C0000AF00BFBD4680BC704780B400AF00BF9A
:10144C00BD4680BC704780B500AF00F029FB00BFE3
:10145C0080BD000080B500AF024801F0A9FA00BFC2
:10146C0080BD00BF9800002080B400AF00BFBD4617
:10147C0080BC704780B500AF012208210F4800F0F6
:10148C00EEFD012240210D4800F0E9FD0122202152
:10149C000A4800F0E4FD01224FF48071074800F087
:1014AC00DEFD01221021054800F0D9FD012280212A
:1014BC00024800F0D4FD00BF80BD00BF000C01400D
:1014CC0080B400AF134B1A78134B1A70114B5A7827
:1014DC00124B1A700F4B9A78114B1A700D4B1A78DD
:1014EC00104B1A700B4B5A780F4B1A70094B9A7899
:1014FC000E4B1A70074B1A780D4B1A70054B5A7815
:10150C000C4B1A70034B9A780B4B1A7000BFBD46EC
:10151C0080BC70478C0000208F00002090000020C1
:10152C0091000020920000209300002094000020E5
:10153C001C0000201D0000201E00002080B483B081
:10154C0000AF03460A46FB711346BB71BB790449D5
:10155C00FA79CA5400BF0C37BD4680BC704700BF37
:10156C008C00002080B400AF024B1B781846BD469F
:10157C0080BC70478C00002080B400AF024B5B78BD
:10158C001846BD4680BC70478C00002080B400AF6C
:10159C00024B9B781846BD4680BC70478C000020DF
:1015AC0080B483B000AF0346FB71FB79002B01D1F3
:1015BC000123FB71054AFB791370054AFB79137003
:1015CC0000BF0C37BD4680BC704700BF1C0000201C
:1015DC008C00002080B483B000AF0346FB71FB7914
:1015EC00002B01D10123FB71054AFB791370054ACD
:1015FC00FB79537000BF0C37BD4680BC704700BFF1
:10160C001D0000208C00002080B483B000AF034686
:10161C00FB71FB79002B01D10123FB71054AFB798E
:10162C001370054AFB79937000BF0C37BD4680BC24
:10163C00704700BF1E0000208C00002080B400AF5B
:10164C00164B1A78164B1A70164B1A78144B5A7094
:10165C00154B1A78124B9A70104B1A78134B1A7050
:10166C00104B1A78124B1A700F4B1A78114B1A70C8
:10167C000A4B1A78104B1A700A4B1A780F4B1A70C7
:10168C00094B1A780E4B1A700E4B02221A700E4B25
:10169C0000221A7000BFBD4680BC70471C000020A1
:1016AC008C0000201D0000201E0000208F00002058
:1016BC009000002091000020920000209300002058
:1016CC00940000201F0000209500002080B400AF83
:1016DC000D4B1A780D4B1A700B4B5A780C4B1A7029
:1016EC00094B9A780B4B1A70074B1A780A4B1A70E5
:1016FC00054B5A78094B1A70034B9A78084B1A70A1
:10170C0000BFBD4680BC70478C0000208F000020BD
:10171C0090000020910000209200002093000020F7
:10172C009400002080B500AF484B1B78022B07D0EB
:10173C00022B00F38880002B56D0012B2AD082E09C
:10174C00434B1B781846FFF725FB01220821414823
:10175C0000F085FC012220213E4800F080FC002294
:10176C0010213C4800F07BFC394B1B78002B05D03A
:10177C00374B1B78013BDAB2354B1A70344B1B7864
:10178C00002B5BD1344B1A78344B1A702F4B01223F
:10179C001A7053E0314B1B781846FFF7FBFA012205
:1017AC0008212C4800F05BFC00222021294800F085
:1017BC0056FC01221021274800F051FC274B1B78C6
:1017CC00002B05D0254B1B78013BDAB2234B1A704A
:1017DC00224B1B78002B33D1214B1A78214B1A70DA
:1017EC001A4B00221A702BE01E4B1B781846FFF781
:1017FC00D1FA00220821174800F031FC01222021E7
:10180C00144800F02CFC01221021124800F027FC97
:10181C00144B1B78002B05D0124B1B78013BDAB212
:10182C00104B1A700F4B1B78002B0BD10E4B1A78E8
:10183C00074B1A70054B02221A7003E000BF02E03E
:10184C0000BF00E000BF00BF80BD00BF1F00002034
:10185C0094000020000C01401D000020930000208B
:10186C001C000020920000201E00002080B500AF5C
:10187C00494B1B78022B07D0022B00F38B80002BDB
:10188C0058D0012B2BD085E0444B1B781846FFF722
:10189C005DFA01224021424800F0E1FB01224FF4A5
:1018AC0080713F4800F0DBFB002280213C4800F0B7
:1018BC00D6FB3A4B1B78002B05D0384B1B78013BE1
:1018CC00DAB2364B1A70354B1B78002B5DD1354B89
:1018DC001A78354B1A70304B01221A7055E0324B86
:1018EC001B781846FFF732FA012240212C4800F0F1
:1018FC00B6FB00224FF48071294800F0B0FB0122A6
:10190C008021274800F0ABFB274B1B78002B05D020
:10191C00254B1B78013BDAB2234B1A70224B1B78F8
:10192C00002B34D1214B1A78214B1A701A4B002200
:10193C001A702CE01E4B1B781846FFF707FA002292
:10194C004021174800F08BFB01224FF480711448A2
:10195C0000F085FB01228021114800F080FB144B24
:10196C001B78002B05D0124B1B78013BDAB2104BC5
:10197C001A700F4B1B78002B0BD10E4B1A78074BA0
:10198C001A70054B02221A7003E000BF02E000BF80
:10199C0000E000BF00BF80BD95000020910000203A
:1019AC00000C01401D000020900000201C000020B5
:1019BC008F0000201E00002080B500AFFFF756FFFF
:1019CC00FFF7B0FE00BF80BDFFF74EFD0B480C4982
:1019DC000C4A002302E0D458C4500433C4188C427F
:1019EC00F9D3094A094C002301E013600432A242E6
:1019FC00FBD301F01DFBFFF7D9FA70470000002064
:101A0C0028000020D830000828000020E400002026
:101A1C00FEE7000080B500AF084B1B68074A43F097
:101A2C0010031360032000F047F90F2000F008F8B2
:101A3C00FFF792FC0023184680BD00BF0020024037
:101A4C0080B582B000AF7860124B1A68124B1B78CD
:101A5C0019464FF47A73B3FBF1F3B2FBF3F3184668
:101A6C0000F05FF90346002B01D001230EE07B68E8
:101A7C000F2B0AD8002279684FF0FF3000F027F9BD
:101A8C00064A7B681360002300E0012318460837E0
:101A9C00BD4680BD1800002024000020200000203E
:101AAC0080B400AF054B1B781A46054B1B681344DA
:101ABC00034A136000BFBD4680BC70472400002061
:101ACC00E000002080B400AF024B1B681846BD46F6
:101ADC0080BC7047E000002080B584B000AF786017
:101AEC00FFF7F0FFB8607B68FB60FB68B3F1FF3F6A
:101AFC0005D00A4B1B781A46FB681344FB6000BFE9
:101B0C00FFF7E0FF0246BB68D31AFA689A42F7D88F
:101B1C0000BF00BF1037BD4680BD00BF24000020B1
:101B2C0080B485B000AF78607B6803F00703FB607E
:101B3C000C4BDB68BB60BA684FF6FF031340BB600D
:101B4C00FB681A02BB68134343F0BF6343F40033D2
:101B5C00BB60044ABB68D36000BF1437BD4680BC71
:101B6C00704700BF00ED00E080B400AF044BDB68B1
:101B7C001B0A03F007031846BD4680BC704700BF24
:101B8C0000ED00E080B483B000AF0346FB7197F921
:101B9C000730002B0BDBFB7903F01F02064997F98A
:101BAC0007305B09012000FA02F241F8232000BF44
:101BBC000C37BD4680BC704700E100E080B483B0B8
:101BCC0000AF03463960FB7197F90730002B0ADB35
:101BDC003B68DAB20C4997F907301201D2B20B44C8
:101BEC0083F800230AE03B68DAB20849FB7903F07A
:101BFC000F03043B1201D2B20B441A7600BF0C3710
:101C0C00BD4680BC704700BF00E100E000ED00E085
:101C1C0080B489B000AFF860B9607A60FB6803F0FB
:101C2C000703FB61FB69C3F10703042B28BF0423E3
:101C3C00BB61FB690433062B02D9FB69033B00E053
:101C4C0000237B614FF0FF32BB6902FA03F3DA43E6
:101C5C00BB681A407B699A404FF0FF317B6901FAEF
:101C6C0003F3D9437B680B40134318462437BD4616
:101C7C0080BC704780B582B000AF78607B68013B58
:101C8C00B3F1807F01D301230FE00A4A7B68013B4B
:101C9C0053600F214FF0FF30FFF790FF054B0022F0
:101CAC009A60044B07221A60002318460837BD4679
:101CBC0080BD00BF10E000E080B582B000AF78605E
:101CCC007868FFF72DFF00BF0837BD4680BD80B593
:101CDC0086B000AF0346B9607A60FB7300237B616A
:101CEC00FFF742FF78617A68B9687869FFF790FF6F
:101CFC00024697F90F3011461846FFF75FFF00BFF9
:101D0C001837BD4680BD80B582B000AF0346FB716D
:101D1C0097F907301846FFF735FF00BF0837BD4667
:101D2C0080BD80B582B000AF78607868FFF7A2FF05
:101D3C00034618460837BD4680BD000080B48BB002
:101D4C0000AF7860396000237B6200233B6248E17E
:101D5C0001227B6A02FA03F3FB613B681B68FA6998
:101D6C001340BB61BA69FB699A4240F037813B680A
:101D7C005B68A34A93425ED0A14A934275D8A14AAC
:101D8C00934258D09F4A93426FD89F4A934252D065
:101D9C009D4A934269D89D4A93424CD09B4A9342A8
:101DAC0063D89B4A934246D0994A93425DD8122BF2
:101DBC002AD8122B59D801A252F823F0431E00083E
:101DCC001D1E00082F1E0008711E0008771E00083B
:101DDC00771E0008771E0008771E0008771E000883
:101DEC00771E0008771E0008771E0008771E000873
:101DFC00771E0008771E0008771E0008771E000863
:101E0C00251E0008391E0008824A934213D02CE08C
:101E1C003B68DB683B6229E03B68DB6804333B6270
:101E2C0024E03B68DB6808333B621FE03B68DB68FF
:101E3C000C333B621AE03B689B68002B02D10423F5
:101E4C003B6213E03B689B68012B05D108233B6286
:101E5C007B68FA691A6109E008233B627B68FA69BE
:101E6C005A6103E000233B6200E000BFBB69FF2B1B
:101E7C0001D87B6801E07B6804337B61BB69FF2B75
:101E8C0002D87B6A9B0002E07B6A083B9B003B61AB
:101E9C007B691A680F213B6901FA03F3DB431A4093
:101EAC00396A3B6901FA03F31A437B691A603B6890
:101EBC005B6803F08053002B00F09080564B9B69BD
:101ECC00554A43F001039361534B9B6903F00103A3
:101EDC00BB60BB68514A7B6A9B08023352F82330C3
:101EEC00FB607B6A03F003039B000F2202FA03F3EF
:101EFC00DB43FA681340FB607B68494A93420DD080
:101F0C007B68484A934207D07B68474A934201D189
:101F1C00022304E0032302E0012300E000237A6A99
:101F2C0002F0030292009340FA681343FB603B49B2
:101F3C007B6A9B080233FA6841F823203B685B6894
:101F4C0003F48013002B06D0384B9A683749BB69D1
:101F5C0013438B6006E0354B9A68BB69DB4333490E
:101F6C0013408B603B685B6803F40013002B06D0B6
:101F7C002E4BDA682D49BB691343CB6006E02B4B23
:101F8C00DA68BB69DB4329491340CB603B685B686B
:101F9C0003F40033002B06D0244B5A682349BB6949
:101FAC0013434B6006E0214B5A68BB69DB431F4966
:101FBC0013404B603B685B6803F48033002B06D006
:101FCC001A4B1A681949BB6913430B6006E0174B8F
:101FDC001A68BB69DB43154913400B607B6A0133FC
:101FEC007B623B681A687B6A22FA03F3002B7FF44E
:101FFC00AFAE00BF00BF2C37BD4680BC704700BFE2
:10200C0000003210000031100000221000002110DE
:10201C0000001210000011100010024000000140DE
:10202C0000080140000C0140001001400004014078
:10203C0080B485B000AF78600B467B807B689A6873
:10204C007B881340002B02D00123FB7301E000239B
:10205C00FB73FB7B18461437BD4680BC704780B4BD
:10206C0083B000AF78600B467B8013467B707B7827
:10207C00002B03D07A887B681A6103E07B881A04F2
:10208C007B681A6100BF0C37BD4680BC704780B4BA
:10209C0085B000AF78600B467B807B68DB68FB60AB
:1020AC007A88FB6813401A04FB68D9437B880B4081
:1020BC001A437B681A6100BF1437BD4680BC704759
:1020CC0080B586B000AF78607B68002B01D101230E
:1020DC006CE27B681B6803F00103002B00F0878027
:1020EC00924B5B6803F00C03042B0CD08F4B5B689A
:1020FC0003F00C03082B12D18C4B5B6803F4803378
:10210C00B3F5803F0BD1894B1B6803F40033002BD4
:10211C006CD07B685B68002B68D1012346E27B683E
:10212C005B68B3F5803F06D1804B1B687F4A43F454
:10213C00803313602EE07B685B68002B0CD17B4BEB
:10214C001B687A4A23F480331360784B1B68774AF8
:10215C0023F4802313601DE07B685B68B3F5A02F2C
:10216C000CD1724B1B68714A43F4802313606F4B84
:10217C001B686E4A43F4803313600BE06B4B1B6897
:10218C006A4A23F480331360684B1B68674A23F454
:10219C00802313607B685B68002B13D0FFF792FCE5
:1021AC00386108E0FFF78EFC02463B69D31A642BBA
:1021BC0001D90323FAE15D4B1B6803F40033002BB8
:1021CC00F0D014E0FFF77EFC386108E0FFF77AFCF2
:1021DC0002463B69D31A642B01D90323E6E1534B26
:1021EC001B6803F40033002BF0D100E000BF7B68C8
:1021FC001B6803F00203002B63D04C4B5B6803F0AD
:10220C000C03002B0BD0494B5B6803F00C03082B21
:10221C001CD1464B5B6803F48033002B16D1434B27
:10222C001B6803F00203002B05D07B681B69012B94
:10223C0001D00123BAE13D4B1B6823F0F8027B6807
:10224C005B69DB00394913430B603AE07B681B691F
:10225C00002B20D0364B01221A60FFF733FC38617B
:10226C0008E0FFF72FFC02463B69D31A022B01D979
:10227C0003239BE12D4B1B6803F00203002BF0D0D2
:10228C002A4B1B6823F0F8027B685B69DB0027494B
:10229C0013430B6015E0264B00221A60FFF712FC6B
:1022AC00386108E0FFF70EFC02463B69D31A022B9B
:1022BC0001D903237AE11D4B1B6803F00203002BA9
:1022CC00F0D17B681B6803F00803002B3AD07B68C5
:1022DC009B69002B19D0174B01221A60FFF7F2FBF8
:1022EC00386108E0FFF7EEFB02463B69D31A022B7C
:1022FC0001D903235AE10D4B5B6A03F00203002B57
:10230C00F0D0012000F09AFA1CE00A4B00221A606F
:10231C00FFF7D8FB38610FE0FFF7D4FB02463B69AF
:10232C00D31A022B08D9032340E100BF001002404E
:10233C0000004242800442429E4B5B6A03F002035F
:10234C00002BE9D17B681B6803F00403002B00F021
:10235C00A6800023FB75974BDB6903F08053002BA1
:10236C000DD1944BDB69934A43F08053D361914B6D
:10237C00DB6903F08053BB60BB680123FB758E4B9C
:10238C001B6803F48073002B18D18B4B1B688A4A93
:10239C0043F480731360FFF795FB386108E0FFF797
:1023AC0091FB02463B69D31A642B01D90323FDE050
:1023BC00814B1B6803F48073002BF0D07B68DB68C7
:1023CC00012B06D17B4B1B6A7A4A43F00103136243
:1023DC002DE07B68DB68002B0CD1764B1B6A754AB1
:1023EC0023F001031362734B1B6A724A23F004033C
:1023FC0013621CE07B68DB68052B0CD16D4B1B6AF0
:10240C006C4A43F0040313626A4B1B6A694A43F03B
:10241C00010313620BE0674B1B6A664A23F001034E
:10242C001362644B1B6A634A23F0040313627B68D8
:10243C00DB68002B15D0FFF745FB38610AE0FFF78E
:10244C0041FB02463B69D31A41F28832934201D9CF
:10245C000323ABE0574B1B6A03F00203002BEED0B7
:10246C0014E0FFF72FFB38610AE0FFF72BFB024665
:10247C003B69D31A41F28832934201D9032395E088
:10248C004C4B1B6A03F00203002BEED1FB7D012B9E
:10249C0005D1484BDB69474A23F08053D3617B68F5
:1024AC00DB69002B00F08180424B5B6803F00C036E
:1024BC00082B61D07B68DB69022B46D13F4B002295
:1024CC001A60FFF7FFFA386108E0FFF7FBFA0246E3
:1024DC003B69D31A022B01D9032367E0354B1B68E8
:1024EC0003F00073002BF0D17B681B6AB3F5803FBF
:1024FC0008D1304B5B6823F400327B689B682D4914
:10250C0013434B602B4B5B6823F474127B68196A82
:10251C007B685B6A0B43274913434B60274B0122B3
:10252C001A60FFF7CFFA386108E0FFF7CBFA0246E2
:10253C003B69D31A022B01D9032337E01D4B1B68CF
:10254C0003F00073002BF0D02FE01C4B00221A601C
:10255C00FFF7B8FA386108E0FFF7B4FA02463B69B6
:10256C00D31A022B01D9032320E0124B1B6803F072
:10257C000073002BF0D118E07B68DB69012B01D1D3
:10258C00012313E00B4B5B68FB60FB6803F48032A8
:10259C007B681B6A9A4206D1FB6803F470127B6855
:1025AC005B6A9A4201D0012300E0002318461837D9
:1025BC00BD4680BD001002400070004060004242E9
:1025CC0080B584B000AF786039607B68002B01D196
:1025DC000123D0E06A4B1B6803F007033A689A4268
:1025EC0010D9674B1B6823F0070265493B681343FE
:1025FC000B60634B1B6803F007033A689A4201D0E7
:10260C000123B8E07B681B6803F00203002B20D089
:10261C007B681B6803F00403002B05D0594B5B68E7
:10262C00584A43F4E06353607B681B6803F008036B
:10263C00002B05D0534B5B68524A43F460535360F4
:10264C00504B5B6823F0F0027B689B684D49134349
:10265C004B607B681B6803F00103002B40D07B6848
:10266C005B68012B07D1474B1B6803F40033002B2D
:10267C0015D101237FE07B685B68022B07D1414BAE
:10268C001B6803F00073002B09D1012373E03D4B51
:10269C001B6803F00203002B01D101236BE0394BC3
:1026AC005B6823F003027B685B68364913434B601D
:1026BC00FFF708FAF8600AE0FFF704FA0246FB6835
:1026CC00D31A41F28832934201D9032353E02D4BA4
:1026DC005B6803F00C027B685B689B009A42EBD151
:1026EC00274B1B6803F007033A689A4210D2244B1D
:1026FC001B6823F0070222493B6813430B60204BF5
:10270C001B6803F007033A689A4201D0012332E0B8
:10271C007B681B6803F00403002B08D0194B5B6823
:10272C0023F4E0627B68DB68164913434B607B68DB
:10273C001B6803F00803002B09D0124B5B6823F4D1
:10274C0060527B681B69DB000E4913434B6000F041
:10275C0021F802460B4B5B681B0903F00F030A4977
:10276C00CB5C22FA03F3094A1360094B1B68184629
:10277C00FFF766F9002318461037BD4680BD00BF31
:10278C000020024000100240AC300008180000206D
:10279C002000002080B487B000AF0023FB60002332
:1027AC00BB6000237B6100237B6000233B611E4BDD
:1027BC005B68FB60FB6803F00C03042B02D0082B56
:1027CC0003D027E0194B3B6127E0FB689B0C03F01F
:1027DC000F03174AD35C7B60FB6803F48033002B38
:1027EC0010D0114B5B685B0C03F00103114AD35CF6
:1027FC00BB607B680D4A02FB03F2BB68B2FBF3F3D0
:10280C007B6104E07B680C4A02FB03F37B617B6910
:10281C003B6102E0054B3B6100BF3B6918461C372E
:10282C00BD4680BC704700BF0010024000127A0009
:10283C00BC300008CC30000800093D0080B485B0E5
:10284C0000AF78600A4B1B680A4AA2FB03235B0AA1
:10285C007A6802FB03F3FB6000BFFB685A1EFA6048
:10286C00002BF9D100BF00BF1437BD4680BC7047A8
:10287C0018000020D34D621080B582B000AF786094
:10288C007B68002B01D1012341E07B6893F83D303C
:10289C00DBB2002B06D17B68002283F83C207868E1
:1028AC00FEF78CFD7B68022283F83D207B681A685A
:1028BC007B6804331946104600F056FA7B680122F7
:1028CC0083F846207B68012283F83E207B68012236
:1028DC0083F83F207B68012283F840207B6801222B
:1028EC0083F841207B68012283F842207B68012217
:1028FC0083F843207B68012283F844207B68012203
:10290C0083F845207B68012283F83D20002318467C
:10291C000837BD4680BD000080B485B000AF78603C
:10292C007B6893F83D30DBB2012B01D0012335E0FD
:10293C007B68022283F83D207B681B68DA687B6821
:10294C001B6842F00102DA607B681B68164A9342EE
:10295C0009D07B681B68B3F1804F04D07B681B687F
:10296C00124A934211D17B681B689B6803F00703E2
:10297C00FB60FB68062B10D07B681B681A687B68B1
:10298C001B6842F001021A6007E07B681B681A683A
:10299C007B681B6842F001021A600023184614374A
:1029AC00BD4680BC704700BF002C014000040040B5
:1029BC0080B584B000AF78607B681B68DB68FB6017
:1029CC007B681B681B69BB60BB6803F00203002BB0
:1029DC0020D0FB6803F00203002B1BD07B681B6824
:1029EC006FF002021A617B6801221A777B681B6800
:1029FC009B6903F00303002B03D0786800F098F96F
:102A0C0005E0786800F08BF9786800F09AF97B683B
:102A1C0000221A77BB6803F00403002B20D0FB685C
:102A2C0003F00403002B1BD07B681B686FF00402BF
:102A3C001A617B6802221A777B681B689B6903F416
:102A4C004073002B03D0786800F072F905E07868C9
:102A5C0000F065F9786800F074F97B6800221A7749
:102A6C00BB6803F00803002B20D0FB6803F00803BD
:102A7C00002B1BD07B681B686FF008021A617B6807
:102A8C0004221A777B681B68DB6903F00303002BB5
:102A9C0003D0786800F04CF905E0786800F03FF955
:102AAC00786800F04EF97B6800221A77BB6803F057
:102ABC001003002B20D0FB6803F01003002B1BD05D
:102ACC007B681B686FF010021A617B6808221A770A
:102ADC007B681B68DB6903F44073002B03D07868B8
:102AEC0000F026F905E0786800F019F9786800F034
:102AFC0028F97B6800221A77BB6803F00103002BCE
:102B0C000CD0FB6803F00103002B07D07B681B681B
:102B1C006FF001021A617868FEF762FBBB6803F084
:102B2C008003002B0CD0FB6803F08003002B07D034
:102B3C007B681B686FF080021A61786800F06FFA8E
:102B4C00BB6803F04003002B0CD0FB6803F0400380
:102B5C00002B07D07B681B686FF040021A61786805
:102B6C0000F0F8F8BB6803F02003002B0CD0FB68D6
:102B7C0003F02003002B07D07B681B686FF020024A
:102B8C001A61786800F042FA00BF1037BD4680BD6C
:102B9C0080B584B000AF786039600023FB737B682C
:102BAC0093F83C30012B01D10223B4E07B68012265
:102BBC0083F83C207B68022283F83D207B681B68ED
:102BCC009B68BB60BB6823F07703BB60BB6823F4D6
:102BDC007F43BB607B681B68BA689A603B681B6864
:102BEC00B3F5005F3ED0B3F5005F00F28780B3F51C
:102BFC00805F00F08680B3F5805F7FD8702B1AD091
:102C0C00702B7BD8602B50D0602B77D8502B3CD0BE
:102C1C00502B73D8402B58D0402B6FD8302B64D00E
:102C2C00302B6BD8202B60D0202B67D8002B5CD09E
:102C3C00102B5AD062E07B6818683B6899683B6837
:102C4C005A683B68DB6800F06AF97B681B689B6814
:102C5C00BB60BB6843F07703BB607B681B68BA68DA
:102C6C009A604FE07B6818683B6899683B685A68C3
:102C7C003B68DB6800F053F97B681B689A687B68DB
:102C8C001B6842F480429A603CE07B6818683B68A1
:102C9C0059683B68DB681A4600F0CAF87B681B6809
:102CAC005021184600F021F92CE07B6818683B682D
:102CBC0059683B68DB681A4600F0E8F87B681B68CB
:102CCC006021184600F011F91CE07B6818683B681D
:102CDC0059683B68DB681A4600F0AAF87B681B68E9
:102CEC004021184600F001F90CE07B681A683B683B
:102CFC001B681946104600F0F8F803E00123FB733B
:102D0C0000E000BF7B68012283F83D207B68002235
:102D1C0083F83C20FB7B18461037BD4680BD80B441
:102D2C0083B000AF786000BF0C37BD4680BC7047E5
:102D3C0080B483B000AF786000BF0C37BD4680BC58
:102D4C00704780B483B000AF786000BF0C37BD46CD
:102D5C0080BC704780B483B000AF786000BF0C3784
:102D6C00BD4680BC7047000080B485B000AF786071
:102D7C0039607B681B68FB607B682B4A934207D0E9
:102D8C007B68B3F1804F03D07B68284A934208D10B
:102D9C00FB6823F07003FB603B685B68FA681343C5
:102DAC00FB607B68204A934207D07B68B3F1804F6D
:102DBC0003D07B681D4A934208D1FB6823F440730F
:102DCC00FB603B68DB68FA681343FB60FB6823F02D
:102DDC0080023B685B691343FB607B68FA681A608E
:102DEC003B689A687B68DA623B681A687B689A620F
:102DFC007B680D4A934203D13B681A697B681A635E
:102E0C007B6801225A617B681B6903F00103002B6C
:102E1C0005D07B681B6923F001027B681A6100BF37
:102E2C001437BD4680BC7047002C014000040040A4
:102E3C0080B487B000AFF860B9607A60FB681B6A39
:102E4C007B61FB681B6A23F00102FB681A62FB685A
:102E5C009B693B613B6923F0F0033B617B681B0181
:102E6C003A6913433B617B6923F00A037B617A69FE
:102E7C00BB6813437B61FB683A699A61FB687A69AA
:102E8C001A6200BF1C37BD4680BC704780B487B047
:102E9C0000AFF860B9607A60FB681B6A7B61FB6805
:102EAC001B6A23F01002FB681A62FB689B693B618A
:102EBC003B6923F470433B617B681B033A69134302
:102ECC003B617B6923F0A0037B61BB681B017A69C2
:102EDC0013437B61FB683A699A61FB687A691A62F1
:102EEC0000BF1C37BD4680BC704780B485B000AFB6
:102EFC00786039607B689B68FB60FB6823F070032B
:102F0C00FB603A68FB68134343F00703FB607B6884
:102F1C00FA689A6000BF1437BD4680BC704780B415
:102F2C0087B000AFF860B9607A603B60FB689B6863
:102F3C007B617B6923F47F437B613B681A027B686E
:102F4C001A43BB6813437A6913437B61FB687A6944
:102F5C009A6000BF1C37BD4680BC704780B485B0FA
:102F6C0000AF786039607B6893F83C30012B01D15D
:102F7C00022341E07B68012283F83C207B6802221B
:102F8C0083F83D207B681B685B68FB607B681B6873
:102F9C009B68BB60FB6823F07003FB603B681B689D
:102FAC00FA681343FB607B681B68FA685A607B689D
:102FBC001B68144A934209D07B681B68B3F1804F9D
:102FCC0004D07B681B68104A93420CD1BB6823F079
:102FDC008003BB603B685B68BA681343BB607B686B
:102FEC001B68BA689A607B68012283F83D207B6875
:102FFC00002283F83C20002318461437BD4680BCC1
:10300C00704700BF002C01400004004080B483B026
:10301C0000AF786000BF0C37BD4680BC704780B4F1
:10302C0083B000AF786000BF0C37BD4680BC7047E2
:10303C0070B500260C4D0D4C641BA410A64209D192
:10304C0000F022F800260A4D0A4C641BA410A6427C
:10305C0005D170BD55F8043B98470136EEE755F89D
:10306C00043B98470136F2E7D0300008D030000816
:10307C00D0300008D430000803460244934200D1FB
:10308C00704703F8011BF9E7F8B500BFF8BC08BCA2
:10309C009E467047F8B500BFF8BC08BC9E4670470A
:1030AC0000000000000000000102030406070809EC
:1030BC0002030405060708090A0B0C0D0E0F10106D
:0430CC0001020000FD
:0430D00031010008C2
:0430D4000D010008E2
:1030D8000100020004000020050203FF3F065B4FC9
:1030E800666D7D077F67000000127A000502030203
:0830F8001000000001000000BF
:04000005080019D501
:00000001FF
